:100000000C942A000C943C000C943C000C943C0092
:100010000C943C000C943C000C943C000C943C0070
:100020000C943C000C943C000C943C000C943C0060
:100030000C943C000C943C000C943C000C943C0050
:100040000C943C000C943C000C943C000C943C0040
:100050000C943C0011241FBECFE5D4E0DEBFCDBF21
:1000600010E0A0E6B0E001C01D92A636B107E1F7AE
:100070000E9492050C94A3050C940000DF93CF938B
:1000800000D000D0CDB7DEB78A838A818695869569
:10009000869589838981282F30E03C832B838B814F
:1000A0009C818130910541F12B813C8122303105C9
:1000B0002CF48B819C81009761F056C02B813C8190
:1000C0002230310561F18B819C8183309105D1F122
:1000D0004BC08AE390E0909361008093600089E3D5
:1000E00090E090936300809362008BE390E09093A4
:1000F00065008093640038C087E390E090936100CE
:100100008093600086E390E09093630080936200A8
:1001100088E390E0909365008093640025C084E3B9
:1001200090E0909361008093600083E390E090936F
:1001300063008093620085E390E090936500809374
:10014000640012C081E390E09093610080936000AE
:1001500080E390E0909363008093620082E390E0FC
:1001600090936500809364000F900F900F900F9014
:10017000CF91DF910895DF93CF9300D000D00F92FD
:10018000CDB7DEB78A836B838A81877089838A8142
:100190000E943E008B81282F30E03D832C838C8190
:1001A0009D818130910519F12C813D8122303105ED
:1001B00009F44CC08C819D81009709F076C0A09114
:1001C0006000B0916100E0916000F0916100808179
:1001D000482F8981282F30E081E090E0022E02C074
:1001E000880F991F0A94E2F7842B8C935EC0A0912C
:1001F0006000B0916100E0916000F0916100808149
:10020000482F8981282F30E081E090E002C0880FDC
:10021000991F2A95E2F7809584238C93A09164001E
:10022000B0916500E0916400F09165008081482FF5
:100230008981282F30E081E090E0022E02C0880FF3
:10024000991F0A94E2F7842B8C932FC0A091600031
:10025000B0916100E0916000F09161008081482FD1
:100260008981282F30E081E090E002C0880F991F3B
:100270002A95E2F7809584238C93A0916400B09135
:100280006500E0916400F09165008081482F8981CC
:10029000282F30E081E090E0022E02C0880F991FE5
:1002A0000A94E2F7809584238C930F900F900F901F
:1002B0000F900F90CF91DF910895DF93CF9300D0EF
:1002C00000D0CDB7DEB789836A8389810E943E0062
:1002D0008A81282F30E03C832B838B819C81813065
:1002E0009105A9F02B813C812230310539F18B81B8
:1002F0009C810097C9F5A0916000B0916100E091E8
:100300006000F091610080818F608C932DC0A0917E
:100310006000B0916100E0916000F0916100808127
:10032000807F8C93A0916400B0916500E09164009F
:10033000F091650080818F608C9316C0A091600061
:10034000B0916100E0916000F09161008081807F58
:100350008C93A0916400B0916500E0916400F091ED
:1003600065008081807F8C930F900F900F900F908D
:10037000CF91DF910895DF93CF9300D000D0CDB718
:10038000DEB789836A8389810E943E008A81282F93
:1003900030E03C832B838B819C8181309105A9F0D7
:1003A0002B813C812230310539F18B819C81009772
:1003B000C9F5A0916000B0916100E0916000F091FA
:1003C00061008081806F8C932DC0A0916000B091FE
:1003D0006100E0916000F091610080818F708C93EA
:1003E000A0916400B0916500E0916400F091650017
:1003F0008081806F8C9316C0A0916000B0916100E5
:10040000E0916000F091610080818F708C93A091E9
:100410006400B0916500E0916400F0916500808116
:100420008F708C930F900F900F900F90CF91DF9162
:100430000895DF93CF9300D000D0CDB7DEB7898386
:100440006A8389810E943E008A81282F30E03C83A4
:100450002B838B819C818130910581F02B813C81A4
:1004600022303105B9F08B819C810097E9F4E0914D
:100470006000F09161008FEF808316C0E091600012
:10048000F09161001082E0916400F09165008FEFBF
:1004900080830AC0E0916000F09161001082E091D9
:1004A0006400F091650010820F900F900F900F90F4
:1004B000CF91DF910895DF93CF9300D00F92CDB706
:1004C000DEB78A836B838A81877089838A810E94E1
:1004D0003E008B818823C9F4A0916400B09165002F
:1004E000E0916400F09165008081482F8981282F78
:1004F00030E081E090E0022E02C0880F991F0A943C
:10050000E2F7809584238C931AC08B818130B9F4F3
:10051000A0916400B0916500E0916400F0916500E5
:100520008081482F8981282F30E081E090E0022EE1
:1005300002C0880F991F0A94E2F7842B8C930F90C6
:100540000F900F90CF91DF910895DF93CF9300D05C
:10055000CDB7DEB78A838A81877089838A810E94BA
:100560003E00A0916400B0916500E0916400F091BC
:1005700065008081482F8981282F30E081E090E05C
:10058000022E02C0880F991F0A94E2F784278C93E9
:100590000F900F90CF91DF910895DF93CF9300D00C
:1005A000CDB7DEB789836A8389810E943E008A8144
:1005B000882361F4A0916400B0916500E09164002B
:1005C000F09165008081807F8C930EC08A8181309C
:1005D00059F4A0916400B0916500E0916400F0913D
:1005E000650080818F608C930F900F90CF91DF9189
:1005F0000895DF93CF930F92CDB7DEB789838981BA
:100600000E943E00A0916400B0916500E0916400FA
:10061000F091650090818FE089278C930F90CF91A6
:10062000DF910895DF93CF9300D0CDB7DEB78983F4
:100630006A8389810E943E00A0916400B0916500A8
:10064000E0916400F09165008081807F8C93A0919F
:100650006400B0916500E0916400F09165009081C4
:100660008A81892B8C930F900F90CF91DF91089501
:10067000DF93CF9300D0CDB7DEB789836A838981BA
:100680000E943E008A81882361F4A0916400B091A9
:100690006500E0916400F091650080818F708C931B
:1006A0000EC08A81813059F4A0916400B091650038
:1006B000E0916400F09165008081806F8C930F90D1
:1006C0000F90CF91DF910895DF93CF930F92CDB725
:1006D000DEB7898389810E943E00A0916400B091B9
:1006E0006500E0916400F0916500908180EF8927BA
:1006F0008C930F90CF91DF910895DF93CF9300D02B
:10070000CDB7DEB789836A8389810E943E00A091BC
:100710006400B0916500E0916400F0916500808113
:100720008F708C93A0916400B0916500E09164009B
:10073000F09165008081282F8A81882F90E0829532
:100740009295907F9827807F9827822B8C930F908B
:100750000F90CF91DF910895DF93CF9300D0CDB765
:10076000DEB789836A8389810E943E008A8188235B
:1007700031F4E0916400F0916500108209C08A8133
:10078000813031F4E0916400F09165008FEF808357
:100790000F900F90CF91DF910895DF93CF930F9239
:1007A000CDB7DEB7898389810E943E00A0916400A5
:1007B000B0916500E0916400F091650080818095C2
:1007C0008C930F90CF91DF910895DF93CF9300D05A
:1007D000CDB7DEB789836A8389810E943E00E091AC
:1007E0006400F09165001082A0916400B0916500F2
:1007F000E0916400F091650090818A81892B8C934F
:100800000F900F90CF91DF910895DF93CF9300D099
:100810000F92CDB7DEB78B838B8187708A838B81F4
:100820000E943E00E0916200F09163008081482FB9
:1008300050E08A81282F30E081E090E002C0880FEC
:10084000991F2A95E2F79A01282339238A81882F54
:1008500090E0A90102C0559547958A95E2F7CA0133
:10086000898389810F900F900F90CF91DF91089528
:10087000DF93CF9300D0CDB7DEB78A838A810E9401
:100880003E00E0916200F091630080818F70898367
:1008900089810F900F90CF91DF910895DF93CF93CF
:1008A00000D0CDB7DEB78A838A810E943E00E091F6
:1008B0006200F0916300808182958F7089838981C5
:1008C0000F900F90CF91DF910895DF93CF9300D0D9
:1008D000CDB7DEB78A838A810E943E00E091620034
:1008E000F09163008081898389810F900F90CF916F
:1008F000DF910895DF93CF93CDB7DEB78DE060E051
:100900000E94BB008EE062E00E94BB008FE060E0CE
:100910000E94BB00CF91DF910895DF93CF93CDB7B5
:10092000DEB78CE062E00E94BB008DE062E00E94D6
:10093000BB008EE060E00E94BB008FE062E00E949E
:10094000BB00CF91DF910895DF93CF930F92CDB786
:10095000DEB7A6E5B0E0E6E5F0E0808184608C9348
:10096000E0E2F0E08081E0E2F0E01082A0E2B0E0BE
:10097000E0E2F0E0808187608C930F90CF91DF916F
:100980000895DF93CF93CDB7DEB7A6E5B0E0E6E5F7
:10099000F0E0808184608C93A6E5B0E0E6E5F0E0CD
:1009A000808180628C93A6E5B0E0E6E5F0E080818E
:1009B00080688C93E6E5F0E08081881F8827881F97
:1009C000882F90E090700097A9F3CF91DF91089560
:1009D000DF93CF93CDB7DEB7A6E5B0E0E6E5F0E074
:1009E000808184608C93A6E5B0E0E6E5F0E080814C
:1009F00080618C93A6E5B0E0E6E5F0E08081806858
:100A00008C93CF91DF910895DF93CF9300D0CDB732
:100A1000DEB78983E3E2F0E08081E3E2F0E0108278
:100A2000A3E2B0E0E3E2F0E090818981892B8C932E
:100A3000A6E5B0E0E6E5F0E0808184608C93A6E571
:100A4000B0E0E6E5F0E0808180688C93E6E5F0E0D8
:100A50008081881F8827881F882F90E090700097DA
:100A6000A9F30F900F90CF91DF910895DF93CF936B
:100A70000F92CDB7DEB7E1E2F0E08081887F898315
:100A800089810F90CF91DF910895DF93CF93CDB7F8
:100A9000DEB7A6E5B0E0E6E5F0E0808184608C9307
:100AA000A6E5B0E0E6E5F0E0808180648C93A6E501
:100AB000B0E0E6E5F0E0808180688C93E6E5F0E068
:100AC0008081881F8827881F882F90E0907000976A
:100AD000A9F3E3E2F0E08081CF91DF910895DF9305
:100AE000CF93CDB7DEB7A6E5B0E0E6E5F0E08081D4
:100AF00084608C93A6E5B0E0E6E5F0E08081806854
:100B00008C93E6E5F0E08081881F8827881F882F76
:100B100090E090700097A9F3E3E2F0E08081CF913C
:100B2000DF910895DF93CF93CDB7DEB70E94A40481
:100B30000E94C10480EA0E94040580ED0E94040521
:0A0B40000E94E804F5CFF894FFCFFF
:00000001FF
