:100000000C942A000C9447000C9447000C94470071
:100010000C9447000C9447000C9447000C9455082E
:100020000C9447000C9447000C9447000C94470034
:100030000C9447000C9447000C9447000C94470024
:100040000C9447000C9447000C9447000C94470014
:100050000C94470011241FBECFE5D8E0DEBFCDBF12
:1000600010E0A0E6B0E0EAECF7E202C005900D92E5
:10007000A437B107D9F713E0A4E7B0E001C01D929F
:10008000AD36B107E1F70E9449000C94E3130C94DC
:100090000000AF92BF92CF92DF92EF92FF920F9348
:1000A000DF93CF93CDB7DEB781E060E00E945808C0
:1000B00090936C0380936B0380916B0390916C031E
:1000C000009759F080916B0390916C0360E070E0B1
:1000D00040E050E020E00E94010920E630E08FE996
:1000E00090E0B90140E550E020E030E000E0EE248F
:1000F000FF24CC24DD24AA24BB240E94D90C26E6AC
:1001000030E088ED90E0B90140E550E020E030E0DB
:1001100001E0EE24FF24CC24DD24AA24BB240E9489
:10012000D90C0E94D20E80E090E0CF91DF910F9128
:10013000FF90EF90DF90CF90BF90AF900895DF9346
:10014000CF9300D000D0CDB7DEB79C838B83809156
:100150006B0390916C0360E070E048EE53E020E0A8
:100160000E94EC09A1E3B0E0E1E3F0E080818E7F42
:100170008C930E94AB0F9A838983E0E3F0E0808147
:10018000882F90E081709070882359F080916B03E4
:1001900090916C0360E070E040E050E020E00E944D
:1001A0000109CE01019668EC70E00E94290EE5CFAE
:1001B000DF93CF9300D000D0CDB7DEB79C838B8385
:1001C000A1E3B0E0E1E3F0E0808180628C930E94E3
:1001D000AB0F9A83898380916B0390916C0360E0ED
:1001E00070E048EE53E020E00E94EC09813041F4D9
:1001F000A2E3B0E0E2E3F0E0908180E289278C9313
:10020000CE01019664EF71E00E94290EE4CFDF93E6
:10021000CF93CDB7DEB727970FB6F894DEBF0FBEEA
:10022000CDBF9D838C836E834F838AE190E00E94D3
:10023000DF039A83898389819A81009709F46FC0CB
:100240008091740090917500009741F489819A81A2
:1002500090937500809374000E946E038E818230AB
:1002600010F081E08E83E981FA81118E108EE98190
:10027000FA818E81868BE981FA818F81878BE98172
:10028000FA818C819D819183808389819A810296F4
:100290000E94750489819A810C960E947504E981F7
:1002A000FA8189819A8191878087E981FA818981A0
:1002B0009A81938B828B8E81282F30E085E090E0AD
:1002C000821B930BE981FA8195878487E981FA8102
:1002D000968980917600891728F4E981FA818689C8
:1002E00080937600E981FA818689282F30E0C90160
:1002F000880F991F880F991F880F991F820F931FCE
:10030000AC0143585F4F89819A819C012E5F3F4F1A
:10031000CA01B9010E94850481E08B8302C08FEF7E
:100320008B838B8127960FB6F894DEBF0FBECDBFAF
:10033000CF91DF910895DF93CF9300D000D000D00C
:10034000CDB7DEB79C838B837E836D83209177004E
:10035000309178008B819C81820F931F9A838983CF
:10036000809174009091750002960E943D05E09185
:100370007400F091750089819A8193838283209122
:1003800077003091780089819A818217930770F401
:100390008091A3009091A400209174003091750089
:1003A0002E5F3F4FB9010E94D1040DC08091A10082
:1003B0009091A20020917400309175002E5F3F4F04
:1003C000B9010E94D1048D819E81009761F08091D6
:1003D0007400909175009C01245F3F4F8D819E8138
:1003E000B9010E94D10426960FB6F894DEBF0FBE65
:1003F000CDBFCF91DF910895DF93CF9300D0CDB7DC
:10040000DEB73AC0F894E091AA00F091AB00868183
:1004100097819A83898389819A810C960E943D05F0
:10042000789489819A8102960E943D05E981FA813A
:10043000968980917600891728F4E981FA81868966
:1004400080937600E981FA818689282F30E0C901FE
:10045000880F991F880F991F880F991F820F931F6C
:10046000AC0143585F4F89819A819C012E5F3F4FB9
:10047000CA01B9010E9485048091A500882309F072
:10048000C1CF0F900F90CF91DF910895DF93CF935D
:1004900000D000D0CDB7DEB70E94AB0F209179001D
:1004A00030917A00821B930B90937C0080937B00A9
:1004B00085C08091770090917800019690937800A4
:1004C0008093770080917B0090917C0001979093BE
:1004D0007C0080937B00809177009091780000975A
:1004E00009F064C08091A1009091A2009A83898351
:1004F0008091A3009091A4009093A2008093A1000A
:1005000089819A819093A4008093A3004FC0E091C9
:10051000A100F091A2000580F681E02D86819781EF
:100520009C838B83EB81FC812281338180917700D6
:10053000909178008217930708F440C0F8948B815B
:100540009C8102960E943D05EB81FC8184899589FE
:10055000009729F08B819C810C960E943D05789430
:10056000EB81FC81968980917600891728F4EB81D4
:10057000FC81868980937600EB81FC818689282F17
:1005800030E0C901880F991F880F991F880F991FA4
:10059000820F931FAC0143585F4F8B819C819C015C
:1005A0002E5F3F4FCA01B9010E948504E091A1006E
:1005B000F091A2008081882309F0A9CF80917B006F
:1005C00090917C00009709F074CF80917700909112
:1005D000780090937A00809379000F900F900F909D
:1005E0000F90CF91DF910895DF93CF9300D0CDB7D7
:1005F000DEB70E94FC010E9446020AC0809176008C
:10060000882309F466C0809176008150809376003B
:1006100080917600282F30E0C901880F991F880F3C
:10062000991F880F991F820F931FFC01E358FF4FFA
:100630008081882319F380917600282F30E0C9014A
:10064000880F991F880F991F880F991F820F931F7A
:1006500083589F4F9A838983E981FA810180F281CF
:10066000E02D82819381E981FA8192838183E981FE
:10067000FA812181328189819A810396281739076D
:1006800059F4E981FA810180F281E02D8281938120
:10069000E981FA8192838183E981FA810180F28183
:1006A000E02D868197819093750080937400E0918E
:1006B0007400F09175004081518180917400909197
:1006C0007500E0917400F09175002789622FFA019E
:1006D00009950F900F90CF91DF910895DF93CF93FD
:1006E0000F92CDB7DEB7198213C08981282F30E071
:1006F000C901880F991F880F991F880F991F820FB2
:10070000931F83589F4F0E944B0489818F5F898379
:100710008981823050F38FE890E00E944B0488E991
:1007200090E00E944B0485EA90E00E944B048FE821
:1007300090E09093A2008093A10088E990E09093CC
:10074000A4008093A3000F90CF91DF910895DF93D1
:10075000CF9300D000D00F92CDB7DEB79D838C83AE
:10076000EC81FD810580F681E02D868197819B8358
:100770008A838A819B810C960E943D058A819B8198
:100780009C01245F3F4F85EA90E0B9010E948504F7
:10079000EA81FB819689E0917400F0917500868969
:1007A000981718F081E0898301C0198289810F9020
:1007B0000F900F900F900F90CF91DF910895DF93DE
:1007C000CF9300D000D0CDB7DEB79C838B831A8245
:1007D00019820E94150F8091AE009091AF002B817D
:1007E0003C81820F931F22E08835920718F52091F3
:1007F000AE003091AF008B819C81280F391F809112
:10080000AE009091AF0082179307A0F48091AE00E4
:100810009091AF0080559F4F9A8389832091AE00BD
:100820003091AF008B819C81820F931F9093AF001A
:100830008093AE000E94210F89819A810F900F90C2
:100840000F900F90CF91DF910895DF93CF9300D059
:10085000CDB7DEB79A8389830F900F90CF91DF9148
:100860000895DF93CF93CDB7DEB71092AF0010920B
:10087000AE00CF91DF910895DF93CF93CDB7DEB770
:100880002091AE003091AF0088E592E0821B930B7F
:10089000CF91DF910895DF93CF9300D0CDB7DEB72E
:1008A0009A83898389819A810396E981FA81928367
:1008B0008183E981FA818FEF9FEF9483838389811C
:1008C0009A810396E981FA819683858389819A8149
:1008D0000396E981FA8190878783E981FA81108202
:1008E0000F900F90CF91DF910895DF93CF9300D0B9
:1008F000CDB7DEB79A838983E981FA8111861086A4
:100900000F900F90CF91DF910895DF93CF9300D098
:1009100000D000D0CDB7DEB79C838B837E836D8300
:10092000EB81FC81818192819A838983E981FA81BB
:1009300082819381ED81FE8193838283EB81FC81AF
:1009400081819281ED81FE8195838483E981FA81A1
:100950000280F381E02D8D819E81958384838D813A
:100960009E81E981FA81938382838D819E81EB81CF
:10097000FC8192838183ED81FE818B819C819187B3
:100980008087EB81FC8180818F5FEB81FC8180839C
:1009900026960FB6F894DEBF0FBECDBFCF91DF9184
:1009A0000895DF93CF93CDB7DEB728970FB6F894AD
:1009B000DEBF0FBECDBF9E838D8378876F83EF81AF
:1009C000F885808191819A83898389819A812FEF2B
:1009D0008F3F920739F4ED81FE81878190859C835A
:1009E0008B8318C08D819E8103969C838B8306C068
:1009F000EB81FC81828193819C838B83EB81FC81E1
:100A00000280F381E02D2081318189819A818217D2
:100A1000930770F7EB81FC8182819381EF81F885E8
:100A200093838283EF81F8850280F381E02D8F81AB
:100A3000988595838483EF81F8858B819C8195834C
:100A400084838F819885EB81FC8193838283EF81FE
:100A5000F8858D819E8191878087ED81FE818081DF
:100A60008F5FED81FE81808328960FB6F894DEBFFC
:100A70000FBECDBFCF91DF910895DF93CF9300D00C
:100A800000D0CDB7DEB79C838B83EB81FC81A28144
:100A9000B381EB81FC818481958115969C938E9323
:100AA0001497EB81FC81A481B581EB81FC8182816B
:100AB000938113969C938E931297EB81FC81808592
:100AC00091859A838983E981FA81218132818B81A1
:100AD0009C812817390741F4EB81FC818481958141
:100AE000E981FA8192838183EB81FC8111861086F2
:100AF000E981FA8180818150E981FA8180830F90B8
:100B00000F900F900F90CF91DF910895DF93CF93C7
:100B1000CDB7DEB728970FB6F894DEBF0FBECDBFB6
:100B20009C838B837E836D8358874F83EB81FC810D
:100B300081E180838B819C8101979C838B83EB81F6
:100B4000FC8182E280838B819C8101979C838B83D3
:100B5000EB81FC8183E380838B819C8101979C8363
:100B60008B838D819E819A8389838981EB81FC812E
:100B700080838B819C8101979C838B8389819A815F
:100B8000892F99279A8389838981EB81FC818083CE
:100B90008B819C8101979C838B83EB81FC811082EC
:100BA0008B819C8101979C838B83EB81FC8180E806
:100BB00080838B819C8101979C838B83EB81FC815B
:100BC00010828B819C8101979C838B83EB81FC81BC
:100BD00082E080838B819C8101979C838B83EB8156
:100BE000FC8183E080838B819C8101979C838B8334
:100BF000EB81FC8184E080838B819C8101979C83C5
:100C00008B83EB81FC8185E080838B819C810197C4
:100C10009C838B83EB81FC8186E080838B819C812C
:100C200001979C838B83EB81FC8187E080838B81A0
:100C30009C8101979C838B83EB81FC8188E080837E
:100C40008B819C8101979C838B83EB81FC8189E064
:100C500080838B819C8101979C838B83EB81FC81BA
:100C600080E180838B819C8101979C838B83EB81C6
:100C7000FC8181E180838B819C8101979C838B83A4
:100C8000EB81FC8182E180838B819C8101979C8335
:100C90008B83EB81FC8183E180838B819C81019735
:100CA0009C838B83EB81FC8184E180838B819C819D
:100CB00001979C838B83EB81FC8185E180838B8111
:100CC0009C8101979C838B83EB81FC8186E18083EF
:100CD0008B819C8101979C838B83EB81FC8187E1D5
:100CE00080838B819C8101979C838B83EB81FC812A
:100CF00088E180838B819C8101979C838B83EB812E
:100D0000FC8189E180838B819C8101979C838B830B
:100D1000EB81FC8180E280838B819C8101979C83A5
:100D20008B83EB81FC8181E280838B819C810197A5
:100D30009C838B83EB81FC8182E280838B819C810D
:100D400001979C838B83EB81FC8183E280838B8181
:100D50009C8101979C838B838F8198859A8389835B
:100D60008981EB81FC8180838B819C8101979C83AD
:100D70008B8389819A81892F99279A838983898195
:100D8000EB81FC8180838B819C8101979C838B8389
:100D9000EB81FC8186E280838B819C8101979C831F
:100DA0008B83EB81FC8187E280838B819C8101971F
:100DB0009C838B83EB81FC8188E280838B819C8187
:100DC00001979C838B83EB81FC8189E280838B81FB
:100DD0009C8101979C838B83EB81FC8180E38083E2
:100DE0008B819C8101979C838B83EB81FC8181E3C8
:100DF00080838B819C8101979C838B838B819C81D9
:100E000028960FB6F894DEBF0FBECDBFCF91DF910D
:100E10000895DF93CF93CDB7DEB70E94F907A09175
:100E20000803B0910903CD91CDBFDD91DEBFFF91E5
:100E3000EF91DF91CF91BF91AF919F918F917F9172
:100E40006F915F914F913F912F911F910F91FF9063
:100E5000EF90DF90CF90BF90AF909F908F907F905A
:100E60006F905F904F903F902F901F900F900FBE0C
:100E70000F90089581E0CF91DF910895DF93CF9394
:100E8000CDB7DEB7CF91DF9108950F920FB6F894EA
:100E90000F921F9211242F923F924F925F926F9266
:100EA0007F928F929F92AF92BF92CF92DF92EF92FA
:100EB000FF920F931F932F933F934F935F936F93E3
:100EC0007F938F939F93AF93BF93CF93DF93EF93D2
:100ED000FF93A0910803B09109030DB60D920EB6D1
:100EE0000D920E94B510A0910803B0910903CD9115
:100EF000CDBFDD91DEBFFF91EF91DF91CF91BF912B
:100F0000AF919F918F917F916F915F914F913F91A1
:100F10002F911F910F91FF90EF90DF90CF90BF9096
:100F2000AF909F908F907F906F905F904F903F9089
:100F30002F901F900F900FBE0F9008950F920FB635
:100F4000F8940F921F9211242F923F924F925F922A
:100F50006F927F928F929F92AF92BF92CF92DF92C9
:100F6000EF92FF920F931F932F933F934F935F93B3
:100F70006F937F938F939F93AF93BF93CF93DF93A1
:100F8000EF93FF93A0910803B09109030DB60D9262
:100F90000EB60D920E94E00F0E94B510A0910803BA
:100FA000B0910903CD91CDBFDD91DEBFFF91EF91EF
:100FB000DF91CF91BF91AF919F918F917F916F9171
:100FC0005F914F913F912F911F910F91FF90EF9063
:100FD000DF90CF90BF90AF909F908F907F906F9059
:100FE0005F904F903F902F901F900F900FBE0F90EB
:100FF0000895DF93CF9300D000D000D0CDB7DEB7F7
:1010000080E49FE1A0E0B0E08B839C83AD83BE834E
:101010008B819C81AD81BE81689415F8B695A795AA
:10102000979587951694D1F78B839C83AD83BE8368
:101030008B819C81AD81BE810197A109B1098B8310
:101040009C83AD83BE838B8189838B819C81AD81A1
:10105000BE81892F9A2FAB2FBB278B839C83AD83B7
:10106000BE838B818A83EBE4F0E08A818083EAE4AB
:10107000F0E0898180838BE08983EEE4F0E0898170
:101080008083E9E5F0E080818983898180618983BB
:10109000E9E5F0E08981808326960FB6F894DEBFFB
:1010A0000FBECDBFCF91DF9108950E949E07189586
:1010B000DF93CF93CDB7DEB728970FB6F894DEBF96
:1010C0000FBECDBF8F8368871A8219828F818823D4
:1010D00009F48CC08FE190E00E94DF039E838D8332
:1010E0008D819E81009709F481C08F81282F30E087
:1010F0008885882F90E0AC01249FC001259F900D2A
:10110000349F900D112401969C838B838B819C814D
:101110000E94DF03ED81FE8191838083ED81FE815A
:1011200080819181009709F45DC0ED81FE8140814D
:1011300051818F81282F30E08885882F90E0BC0175
:10114000269FC001279F900D369F900D1124840F7C
:10115000951FED81FE8193838283ED81FE81128E46
:10116000ED81FE8180819181ED81FE819583848373
:10117000ED81FE81408151818F81882F90E09C011B
:10118000215030408885882F90E0BC01269FC00107
:10119000279F900D369F900D1124840F951FED8190
:1011A000FE8197838683ED81FE818F81838FED8120
:1011B000FE818885848FED81FE818FEF858FED81A3
:1011C000FE818FEF868F8D819E8108960E944B0451
:1011D0008D819E8141960E944B048D819E819A83D0
:1011E000898304C08D819E810E94250489819A8112
:1011F00028960FB6F894DEBF0FBECDBFCF91DF911A
:101200000895DF93CF93CDB7DEB72C970FB6F89440
:10121000DEBF0FBECDBF9E838D8378876F835A87D5
:1012200049872B8719820FB6F8940F92ED81FE81C2
:10123000928DED81FE81838D9817D8F48D819E81EA
:101240002F813885B9014B850E943C0BED81FE81D1
:101250008189882349F08D819E8141960E94511198
:10126000813011F40E9445070F900FBE81E08C87FA
:101270005CC089859A85009721F40F900FBE1C866B
:1012800054C08981882331F4CE0102960E94B9119D
:1012900081E089830F900FBE0E94150F0FB6F8945E
:1012A0000F92ED81FE81858D8F3F19F4ED81FE81D6
:1012B000158EED81FE81868D8F3F19F4ED81FE81C3
:1012C000168E0F900FBECE0102969E01275F3F4FF4
:1012D000B9010E94D211882309F58D819E810E9457
:1012E000A00C8823A1F08D819E81089629853A85DE
:1012F000B9010E941B118D819E810E94190C0E94D0
:10130000210F882309F08FCF0E9445078CCF8D8154
:101310009E810E94190C0E94210F85CF8D819E8194
:101320000E94190C0E94210F1C868C852C960FB6EA
:10133000F894DEBF0FBECDBFCF91DF910895DF934C
:10134000CF93CDB7DEB729970FB6F894DEBF0FBEA7
:10135000CDBF9C838B837E836D8358874F83298782
:101360001982EB81FC81928DEB81FC81838D981732
:1013700040F58B819C812D813E81B90149850E9478
:101380003C0BEB81FC81868D8F3F89F4EB81FC81E6
:101390008189882399F08B819C8141960E9451110B
:1013A000882361F0EF81F88581E0808307C0EB81BD
:1013B000FC81868D8F5FEB81FC81868F81E08A8343
:1013C00001C01A828A8129960FB6F894DEBF0FBE3B
:1013D000CDBFCF91DF910895DF93CF93CDB7DEB727
:1013E0002E970FB6F894DEBF0FBECDBF98878F83C0
:1013F0007A8769875C874B872D871B820FB6F894A5
:101400000F92EF81F885828D882309F43FC0EF8128
:10141000F885868197819A8389838F81988529852C
:101420003A85B9010E94D10B8D858823B1F4EF81F3
:10143000F885828D8150EF81F885828FEF81F88564
:1014400080858823F1F08F81988508960E9451113C
:101450008130B9F40E94450714C0EF81F885898175
:101460009A8197838683EF81F8858189882349F063
:101470008F81988541960E945111882311F00E9416
:1014800045070F900FBE81E08E875CC08B859C85E1
:10149000009721F40F900FBE1E8654C08B818823C5
:1014A00031F4CE0104960E94B91181E08B830F9034
:1014B0000FBE0E94150F0FB6F8940F92EF81F885BA
:1014C000858D8F3F19F4EF81F885158EEF81F885B2
:1014D000868D8F3F19F4EF81F885168E0F900FBE21
:1014E000CE0104969E01255F3F4FB9010E94D211A3
:1014F000882309F58F8198850E946D0C8823A1F0BF
:101500008F81988541962B853C85B9010E941B11DE
:101510008F8198850E94190C0E94210F882309F061
:101520006DCF0E9445076ACF8F8198850E94190C64
:101530000E94210F63CF8F8198850E94190C0E9411
:10154000210F1E868E852E960FB6F894DEBF0FBE35
:10155000CDBFCF91DF910895DF93CF93CDB7DEB7A5
:1015600028970FB6F894DEBF0FBECDBF9C838B8348
:101570007E836D8358874F831982EB81FC81828D36
:10158000882371F18B819C812D813E81B9010E945C
:10159000D10BEB81FC81828D8150EB81FC81828FAC
:1015A000EB81FC81858D8F3F89F4EB81FC81808507
:1015B000882399F08B819C8108960E945111882381
:1015C00061F0EF81F88581E0808307C0EB81FC81C9
:1015D000858D8F5FEB81FC81858F81E08A8301C0DF
:1015E0001A828A8128960FB6F894DEBF0FBECDBF4F
:1015F000CF91DF910895DF93CF9300D00F92CDB7B5
:10160000DEB79B838A830FB6F8940F92EA81FB8141
:10161000828D89830F900FBE89810F900F900F905C
:10162000CF91DF910895DF93CF9300D00F92CDB784
:10163000DEB79B838A83EA81FB81828D89838981DE
:101640000F900F900F90CF91DF910895DF93CF937C
:1016500000D0CDB7DEB79A838983E981FA81808192
:1016600091810E94250489819A810E9425040F900E
:101670000F90CF91DF910895DF93CF9300D000D0EA
:101680000F92CDB7DEB79A8389837C836B834D83BA
:10169000E981FA81848D882309F474C08D818823BF
:1016A00099F5E981FA8164817581E981FA81848DF6
:1016B000482F50E02B813C81CB01B9010E94C4131B
:1016C000E981FA8124813581E981FA81848D882F2D
:1016D00090E0820F931FE981FA8195838483E981E9
:1016E000FA8124813581E981FA81828193812817E9
:1016F000390708F447C0E981FA8180819181E98145
:10170000FA81958384833EC0E981FA81668177817D
:10171000E981FA81848D482F50E02B813C81CB01F7
:10172000B9010E94C413E981FA8126813781E981D8
:10173000FA81848D882F90E0909581959F4F820F3C
:10174000931FE981FA8197838683E981FA81268153
:101750003781E981FA81808191812817390790F4D6
:10176000E981FA8122813381E981FA81848D882F90
:1017700090E0909581959F4F820F931FE981FA81A8
:1017800097838683E981FA81828D8F5FE981FA816F
:10179000828F0F900F900F900F900F90CF91DF914D
:1017A0000895DF93CF9300D000D0CDB7DEB79A83F2
:1017B00089837C836B83E981FA81808191810097A1
:1017C00089F1E981FA8126813781E981FA81848D65
:1017D000882F90E0820F931FE981FA819783868397
:1017E000E981FA8126813781E981FA8182819381B9
:1017F0002817390740F0E981FA8180819181E981D8
:10180000FA8197838683E981FA8146815781E9814C
:10181000FA81848D282F30E08B819C81BA01A90147
:101820000E94C4130F900F900F900F90CF91DF91F3
:101830000895DF93CF9300D0CDB7DEB79A83898325
:101840000FB6F8940F9215C0E981FA818189882337
:10185000A9F089819A8141960E945111882311F043
:101860000E942F12E981FA81868D8150E981FA81E7
:10187000868FE981FA81868D181634F3E981FA8121
:101880008FEF868F0F900FBE0FB6F8940F9215C092
:10189000E981FA8180858823A9F089819A81089657
:1018A0000E945111882311F00E942F12E981FA81C0
:1018B000858D8150E981FA81858FE981FA81858D55
:1018C000181634F3E981FA818FEF858F0F900FBEE0
:1018D0000F900F90CF91DF910895DF93CF9300D0B9
:1018E0000F92CDB7DEB79B838A830FB6F8940F9221
:1018F000EA81FB81828D1982882311F481E089833A
:101900000F900FBE89810F900F900F90CF91DF91B4
:101910000895DF93CF9300D00F92CDB7DEB79B83AE
:101920008A83EA81FB81828D1982882311F481E008
:10193000898389810F900F900F90CF91DF91089547
:10194000DF93CF9300D00F92CDB7DEB79B838A830E
:101950000FB6F8940F92EA81FB81928DEA81FB81A8
:10196000838D1982981711F481E089830F900FBE3F
:1019700089810F900F900F90CF91DF910895DF93A1
:10198000CF9300D00F92CDB7DEB79B838A83EA81D5
:10199000FB81928DEA81FB81838D1982981711F466
:1019A00081E0898389810F900F900F90CF91DF9113
:1019B0000895AF92BF92CF92DF92EF92FF920F9372
:1019C0001F93DF93CF93CDB7DEB764970FB6F8942C
:1019D000DEBF0FBECDBF9F838E83798768875B870D
:1019E0004A873D872C870E87F88AEF86DA8AC98A6C
:1019F000BC8AAB8A8A859B8529893A89B9010E946C
:101A00005E139C838B838B819C81009709F499C022
:101A1000EB81FC812789308D8A859B850197820F18
:101A2000931F9A8389838B819C8128853985EB89D3
:101A3000FC89AA85BB85B9014E859F018D010E9455
:101A4000431289819A812E813F814C855D85B90140
:101A50000E948605EB81FC81918380838F85988924
:101A6000009731F0EF85F8898B819C819183808389
:101A70000FB6F8940F9280910B038F5F80930B0346
:101A80008091080390910903009769F48B819C81F0
:101A9000909309038093080380910B038130A9F48C
:101AA0000E949A1212C080911003882371F4E09171
:101AB0000803F091090396898E85891730F08B8190
:101AC0009C819093090380930803EB81FC819689A4
:101AD00080910E03891728F4EB81FC81868980931D
:101AE0000E03809115038F5F80931503EB81FC81BA
:101AF000968980910F03891728F4EB81FC818689F0
:101B000080930F03EB81FC818689282F30E0C90187
:101B1000880F991F880F991F880F991F820F931F95
:101B2000AC014A5E5C4F8B819C819C012E5F3F4FD4
:101B3000CA01B9010E94850481E08D830F900FBE18
:101B400002C08FEF8D838D81813071F480911003FD
:101B5000882351F0E0910803F091090396898E855E
:101B6000981710F40E9445078D8164960FB6F8947B
:101B7000DEBF0FBECDBFCF91DF911F910F91FF90C0
:101B8000EF90DF90CF90BF90AF900895DF93CF9309
:101B900000D000D000D0CDB7DEB79C838B830FB6CA
:101BA000F8940F9220910803309109038B819C8156
:101BB0008217930711F41C821B828B819C810097F2
:101BC00039F480910803909109039E838D8304C0AA
:101BD0008B819C819E838D838D819E819A83898355
:101BE00089819A8102960E943D05E981FA81848962
:101BF0009589009729F089819A810C960E943D056C
:101C000089819A819C012E5F3F4F82E693E0B90162
:101C10000E94850480910A038F5F80930A0380915C
:101C200015038F5F809315030F900FBE80911003F3
:101C3000882331F08B819C81009711F40E94450725
:101C400026960FB6F894DEBF0FBECDBFCF91DF91C1
:101C50000895DF93CF93CDB7DEB728970FB6F894EA
:101C6000DEBF0FBECDBF9E838D8378876F831982C1
:101C70000E94150FED81FE81208131818F81988531
:101C8000820F931F9C838B83ED81FE8120813181A4
:101C900080910C0390910D0382179307A8F4ED81B6
:101CA000FE81208131818B819C818217930700F511
:101CB00020910C0330910D038B819C8128173907EB
:101CC000B8F481E0898314C0ED81FE8120813181E7
:101CD0008B819C818217930748F020910C033091EF
:101CE0000D038B819C812817390710F481E08983CB
:101CF000ED81FE818B819C81918380838981882302
:101D000059F0809108039091090302960E943D05C5
:101D10008B819C810E9415130E94210F8A838A81E6
:101D2000882311F40E94450728960FB6F894DEBF69
:101D30000FBECDBFCF91DF910895DF93CF9300D039
:101D400000D00F92CDB7DEB79D838C8319828C8132
:101D50009D810097D1F00E94150F20910C033091C6
:101D60000D038C819D81820F931F9B838A838091B9
:101D700008039091090302960E943D058A819B8188
:101D80000E9415130E94210F89838981882311F4F1
:101D90000E9445070F900F900F900F900F90CF91DA
:101DA000DF910895AF92BF92CF92DF92EF92FF92B0
:101DB0000F93DF93CF930F92CDB7DEB72CE630E0D1
:101DC00089E392E1B90145E550E020E030E000E030
:101DD000EE24FF24CC24DD24AA24BB240E94D90CA9
:101DE00089838981813051F4F89481E080931003D4
:101DF00010920D0310920C030E9409070F90CF91CF
:101E0000DF910F91FF90EF90DF90CF90BF90AF9058
:101E10000895DF93CF93CDB7DEB7F89410921003F7
:101E20000E943E07CF91DF910895DF93CF93CDB706
:101E3000DEB7809111038F5F80931103CF91DF9103
:101E40000895DF93CF9300D000D0CDB7DEB71A82CC
:101E50000FB6F8940F928091110381508093110373
:101E600080911103882309F06CC080910B038823B3
:101E700009F467C0198241C0E0915E03F0915F03ED
:101E8000868197819C838B838B819C810C960E9499
:101E90003D058B819C8102960E943D05EB81FC8172
:101EA000968980910F03891728F4EB81FC8186893C
:101EB00080930F03EB81FC818689282F30E0C901D4
:101EC000880F991F880F991F880F991F820F931FE2
:101ED0008A5E9C4F2B813C812E5F3F4FB9010E944F
:101EE0008504EB81FC819689E0910803F091090358
:101EF0008689981710F081E089838091590388239F
:101F000009F0BACF80911203882371F007C00E94B4
:101F1000E00F80911203815080931203809112038D
:101F20008823A9F781E089838981813021F080911C
:101F30001303813031F481E08A83109213030E94ED
:101F400045070F900FBE8A810F900F900F900F9052
:101F5000CF91DF910895DF93CF9300D0CDB7DEB757
:101F60000FB6F8940F9280910C0390910D039A8311
:101F700089830F900FBE89819A810F900F90CF9126
:101F8000DF910895DF93CF9300D00F92CDB7DEB7E6
:101F9000198280910C0390910D039B838A838A811F
:101FA0009B810F900F900F90CF91DF910895DF9359
:101FB000CF93CDB7DEB780910B03CF91DF9108951A
:101FC000DF93CF9300D000D000D0CDB7DEB78091A3
:101FD0001103882309F0BBC080910C0390910D037D
:101FE000019690930D0380930C0380910C039091C4
:101FF0000D030097D1F580915503909156039C8372
:102000008B8380915703909158039093560380934C
:1020100055038B819C819093580380935703809143
:1020200014038F5F80931403E0915503F0915603DE
:102030008081882339F48FEF9FEF90937200809313
:10204000710013C0E0915503F09156030580F681AD
:10205000E02D868197819E838D83ED81FE81828133
:102060009381909372008093710020910C033091C2
:102070000D0380917100909172002817390708F4C0
:102080006BC0E0915503F09156038081882339F4A9
:102090008FEF9FEF90937200809371005DC0E0918D
:1020A0005503F09156030580F681E02D86819781D6
:1020B0009E838D83ED81FE81828193819A838983C2
:1020C00020910C0330910D0389819A8128173907DB
:1020D00038F489819A8190937200809371003CC09A
:1020E0008D819E8102960E943D05ED81FE8184894D
:1020F0009589009729F08D819E810C960E943D055F
:10210000ED81FE81968980910F03891728F4ED8176
:10211000FE81868980930F03ED81FE818689282FB9
:1021200030E0C901880F991F880F991F880F991FE8
:10213000820F931FAC014A5E5C4F8D819E819C0192
:102140002E5F3F4FCA01B9010E9485049ACF80914A
:1021500012038F5F8093120326960FB6F894DEBFAA
:102160000FBECDBFCF91DF910895DF93CF9300D005
:10217000CDB7DEB780911103882349F081E08093C9
:10218000130354C080910F03815080930F038091FB
:102190000F03282F30E0C901880F991F880F991F5E
:1021A000880F991F820F931FFC01EA5EFC4F80810C
:1021B000882341F380910F03282F30E0C901880F55
:1021C000991F880F991F880F991F820F931F8A5E8E
:1021D0009C4F9A838983E981FA810180F281E02D05
:1021E00082819381E981FA8192838183E981FA81F5
:1021F0002181328189819A8103962817390759F400
:10220000E981FA810180F281E02D82819381E98167
:10221000FA8192838183E981FA810180F281E02D44
:102220008681978190930903809308030F900F9004
:10223000CF91DF910895DF93CF9300D000D000D0ED
:10224000CDB7DEB79C838B837E836D834B815C81AE
:1022500080910803909109039C01245F3F4FCA01BC
:10226000B9010E94D104809108039091090302965C
:102270000E943D0520910C0330910D038D819E81BC
:10228000820F931F9A83898389819A810E941513F3
:1022900026960FB6F894DEBF0FBECDBFCF91DF916B
:1022A0000895DF93CF9300D000D00F92CDB7DEB763
:1022B0009D838C83EC81FD810580F681E02D8681F4
:1022C00097819B838A838A819B810C960E943D051E
:1022D00080911103882361F58A819B8102960E9477
:1022E0003D05EA81FB81968980910F03891728F4C7
:1022F000EA81FB81868980930F03EA81FB818689CD
:10230000282F30E0C901880F991F880F991F880F67
:10231000991F820F931FAC014A5E5C4F8A819B819B
:102320009C012E5F3F4FCA01B9010E9485040AC07B
:102330008A819B819C01245F3F4F89E593E0B9012D
:102340000E948504EA81FB819689E0910803F0915F
:1023500009038689981718F081E0898301C01982E2
:1023600089810F900F900F900F900F90CF91DF9178
:102370000895DF93CF9300D0CDB7DEB79A838983DA
:1023800080911403E981FA81808380910C039091FC
:102390000D03E981FA81928381830F900F90CF9191
:1023A000DF910895DF93CF9300D000D00F92CDB787
:1023B000DEB79B838A837D836C830FB6F8940F927C
:1023C000EA81FB81908180911403981771F0EA8172
:1023D000FB812181328180910C0390910D03821742
:1023E000930718F081E089832FC020910C0330916E
:1023F0000D03EA81FB8181819281281B390BEC81DD
:10240000FD818081918128173907E0F4EC81FD81FD
:1024100040815181EA81FB812181328180910C03CD
:1024200090910D03B901681B790BCB01840F951FA7
:10243000EC81FD81918380838A819B810E94B91107
:10244000198202C081E089830F900FBE89810F90AD
:102450000F900F900F900F90CF91DF910895DF9321
:10246000CF93CDB7DEB781E080931303CF91DF9197
:102470000895DF93CF9300D0CDB7DEB79A838983D9
:102480000E94D712FDCF0F931F93DF93CF93CDB749
:10249000DEB729970FB6F894DEBF0FBECDBF9A8383
:1024A00089837C836B834D833F832E8319870887C1
:1024B00089819A8149962B813C81B90148E050E09D
:1024C0000E94D413E981FA8110A28D81853010F029
:1024D00084E08D83E981FA818D81868B89819A815F
:1024E00002960E94750489819A810C960E94750457
:1024F000E981FA8189819A81918780878D81282F4E
:1025000030E085E090E0821B930BE981FA819587AA
:102510008487E981FA8189819A81938B828B2996BC
:102520000FB6F894DEBF0FBECDBFCF91DF911F91E4
:102530000F910895DF93CF930F92CDB7DEB7198235
:1025400013C08981282F30E0C901880F991F880F97
:10255000991F880F991F820F931F8A5E9C4F0E94BC
:102560004B0489818F5F89838981853050F383E4AF
:1025700093E00E944B048CE493E00E944B0489E5B5
:1025800093E00E944B0482E693E00E944B0483E4B4
:1025900093E090935603809355038CE493E09093DB
:1025A0005803809357030F90CF91DF910895DF93E5
:1025B000CF9300D00F92CDB7DEB780910A03882366
:1025C00071F10E94150F809162031B82882311F420
:1025D00081E08B830E94210F8B81882301F50FB648
:1025E000F8940F92E0916703F091680386819781D8
:1025F0009A83898389819A8102960E943D05809100
:102600000B03815080930B0380910A0381508093C8
:102610000A030F900FBE89819A810E94AE130F901A
:102620000F900F90CF91DF910895DF93CF9300D05B
:10263000CDB7DEB79A838983E0910803F09109034F
:1026400089819A819383828320910C0330910D03B9
:1026500089819A818217930770F480915703909132
:10266000580320910803309109032E5F3F4FB901B1
:102670000E94D1041EC04091550350915603809191
:102680000803909109039C012E5F3F4FCA01B901D5
:102690000E94D104209171003091720089819A8149
:1026A0008217930730F489819A8190937200809306
:1026B00071000F900F90CF91DF910895DF93CF932A
:1026C000CDB7DEB728970FB6F894DEBF0FBECDBFEB
:1026D0009C838B837E836D8381E290E00E94DF0385
:1026E0009A83898389819A81009769F18D819E817E
:1026F000009739F48B819C810E94DF0398878F8338
:1027000004C08D819E8198878F83E981FA818F81B2
:102710009885908F878BE981FA818789908D0097C2
:1027200039F489819A810E9425041A8219820BC08A
:10273000E981FA818789908D2B813C8165EA70E07F
:10274000A9010E94CD1389819A8128960FB6F89429
:10275000DEBF0FBECDBFCF91DF910895DF93CF9342
:1027600000D0CDB7DEB79A838983E981FA81878962
:10277000908D0E94250489819A810E9425040F90E2
:102780000F90CF91DF910895FB01DC0102C0019011
:102790000D9241505040D8F70895DC0101C06D936F
:1027A00041505040E0F70895FB01DC01415050409A
:1027B00048F001900D920020C9F701C01D924150D0
:0A27C0005040E0F70895F894FFCFB1
:1027CA005461736B31005461736B320049444C4558
:0427DA0000FFFF00FD
:00000001FF
