:100000000C942A000C9447000C9447000C94470071
:100010000C9447000C9447000C9447000C94470044
:100020000C9447000C9447000C94E90C0C94ED0BD5
:100030000C9447000C9447000C9447000C94470024
:100040000C9447000C9447000C9447000C94470014
:100050000C94470011241FBECFE5D8E0DEBFCDBF12
:1000600011E0A8E6B1E001C01D92A637B107E1F7A3
:1000700011E0A0E6B0E0E2E3F1E202C005900D92EB
:10008000A836B107D9F70E944B0E0C9497100C9428
:100090000000EF92FF920F931F937B018C0120E0F1
:1000A00030E040E05FE40E94F50388238CF0C80153
:1000B000B70120E030E040E05FE40E94C1010E940F
:1000C000B3049B01AC01205030404040504806C072
:1000D000C801B7010E94B3049B01AC01B901CA0178
:1000E0001F910F91FF90EF900895A0E0B0E0EBE733
:1000F000F0E00C946010DC012B01FA019C9192302D
:1001000008F439C1EB018881823008F433C194309E
:1001100069F4843009F02FC111969C91119789815F
:10012000981709F428C1A0E6B0E025C1843009F48D
:1001300021C18230A9F4923009F01DC19A01AD01AC
:1001400088E0EA010990AE01E90109929E0181501F
:10015000C1F7E201898111969C918923818308C1AD
:10016000923009F407C112962D903C901397EB0141
:100170008A819B811496AD90BD90CD90DC901797AD
:10018000EC80FD800E811F819101281B390BB90184
:1001900037FF04C066277727621B730B6032710537
:1001A0000CF061C0121613066CF537014801062EDB
:1001B00004C096948794779467940A94D2F721E0C8
:1001C00030E040E050E004C0220F331F441F551FB1
:1001D0006A95D2F721503040404050402E213F21B7
:1001E00040235123211531054105510521F021E01E
:1001F00030E040E050E079018A01E628F72808293C
:1002000019293CC0232BD1F1260E371E350146019A
:10021000062E04C096948794779467940A94D2F734
:1002200021E030E040E050E004C0220F331F441FC3
:10023000551F6A95D2F721503040404050402A2146
:100240003B214C215D21211531054105510521F04E
:1002500021E030E040E050E059016A01A628B728CB
:10026000C828D9280BC0821593052CF01C01AA249C
:10027000BB24650103C0EE24FF24870111969C91E5
:10028000D20111968C91981709F445C0992339F041
:10029000A80197012A193B094C095D0906C0A6016E
:1002A00095012E193F09400B510B57FD08C01182D3
:1002B0003382228224833583468357831DC081E0A5
:1002C00081833382228288279927DC01821B930B4A
:1002D000A40BB50B84839583A683B7830DC0220F2F
:1002E000331F441F551F24833583468357838281E0
:1002F000938101979383828324813581468157813D
:10030000DA01C9010197A109B1098F5F9F4FAF4F72
:10031000BF4328F30BC0918333822282EA0CFB1C7B
:100320000C1D1D1DE482F5820683178383E0808304
:10033000248135814681578157FF1AC0C901AA27F8
:1003400097FDA095BA2F81709070A070B0705695EF
:10035000479537952795822B932BA42BB52B848318
:100360009583A683B7838281938101969383828349
:10037000DF0101C0D201CD01CDB7DEB7E2E10C94BF
:100380007C10A0E2B0E0E7ECF1E00C946C10698323
:100390007A838B839C832D833E834F835887E9E048
:1003A000EE2EF12CEC0EFD1ECE010196B7010E943F
:1003B0002B068E010F5E1F4FCE010596B8010E94DD
:1003C0002B068A8991E089278A8BC701B801AE0183
:1003D000475E5F4F0E9475000E945605A096E6E0BA
:1003E0000C948810A0E2B0E0E8EFF1E00C946C10FF
:1003F00069837A838B839C832D833E834F835887C5
:10040000F9E0EF2EF12CEC0EFD1ECE010196B701A6
:100410000E942B068E010F5E1F4FCE010596B8017C
:100420000E942B06C701B801AE01475E5F4F0E94D4
:1004300075000E945605A096E6E00C948810A0E294
:10044000B0E0E5E2F2E00C94601069837A838B837C
:100450009C832D833E834F835887CE010196BE0136
:10046000675F7F4F0E942B06CE010596BE016F5E2F
:100470007F4F0E942B069985923088F089898230BF
:10048000C8F0943019F4823051F404C0843029F457
:10049000923081F480E690E0C6C0923049F420E0CA
:1004A0009A858A89981321E02A87CE010996BBC0D4
:1004B000823049F420E09A858A89981321E02A8BBA
:1004C000CE014196B0C02D843E844F8458886D88FB
:1004D0007E888F88988CEE24FF248701AA24BB2471
:1004E000650140E050E060E070E0E0E0F0E0C10174
:1004F00081709070892BE9F0E60CF71C081D191D1E
:100500009A01AB012A0D3B1D4C1D5D1D80E090E062
:10051000A0E0B0E0E614F7040805190520F481E036
:1005200090E0A0E0B0E0BA01A901480F591F6A1F8E
:100530007B1FAA0CBB1CCC1CDD1C97FE08C081E0F5
:1005400090E0A0E0B0E0A82AB92ACA2ADB2A3196B6
:10055000E032F10549F0660C771C881C991C569412
:10056000479437942794C3CFFA85EA892B893C892D
:100570008B859C85280F391F2E5F3F4F17C0CA01FE
:1005800081709070892B61F016950795F794E79428
:1005900080E090E0A0E0B0E8E82AF92A0A2B1B2BC3
:1005A00076956795579547952F5F3F4F77FDE7CF36
:1005B0000CC0440F551F661F771F17FD4160EE0CDE
:1005C000FF1C001F111F21503040403090E05907A0
:1005D00090E0690790E4790760F32B8F3C8FDB0193
:1005E000CA018F779070A070B07080349105A1051A
:1005F000B10561F447FD0AC0E114F10401051105DC
:1006000029F0405C5F4F6F4F7F4F40781A8EFE1786
:1006100011F081E08A8F4D8F5E8F6F8F78A383E01A
:10062000898FCE0149960E945605A096E2E10C946E
:100630007C10A8E1B0E0EFE1F3E00C94681069836E
:100640007A838B839C832D833E834F835887B9E0C5
:10065000EB2EF12CEC0EFD1ECE010196B7010E948F
:100660002B068E010F5E1F4FCE010596B8010E942A
:100670002B062985223008F47EC03989323010F4E7
:10068000B8017CC08A859A8989278A87243011F02D
:10069000223031F4231709F06EC060E670E06EC0BE
:1006A000343039F41D861E861F86188A1C861B86E8
:1006B00004C0323021F484E08987B7015FC02B8504
:1006C0003C858B899C89281B390B3C872B87ED84C3
:1006D000FE840F851889AD88BE88CF88D88CEA142F
:1006E000FB040C051D0540F4EE0CFF1C001F111F40
:1006F000215030403C872B8720E030E040E050E044
:1007000080E090E0A0E0B0E460E070E0EA14FB0478
:100710000C051D0540F0282B392B4A2B5B2BEA18C2
:10072000FB080C091D09B695A79597958795EE0CC2
:10073000FF1C001F111F6F5F7F4F6F31710531F775
:10074000DA01C9018F779070A070B0708034910584
:10075000A105B10561F427FD0AC0E114F10401050A
:10076000110529F0205C3F4F4F4F5F4F20782D87B8
:100770003E874F87588BBE01675F7F4FCB010E943A
:1007800056056896EAE00C948410A8E1B0E0EBEC22
:10079000F3E00C946C1069837A838B839C832D83A4
:1007A0003E834F83588789E0E82EF12CEC0EFD1E26
:1007B000CE010196B7010E942B068E010F5E1F4FDE
:1007C000CE010596B8010E942B068985823040F043
:1007D0008989823028F0C701B8010E94A30601C0B0
:1007E0008FEF6896E6E00C948810A8E1B0E0EBEF9C
:1007F000F3E00C946C1069837A838B839C832D8344
:100800003E834F83588789E0E82EF12CEC0EFD1EC5
:10081000CE010196B7010E942B068E010F5E1F4F7D
:10082000CE010596B8010E942B068985823040F0E2
:100830008989823028F0C701B8010E94A30601C04F
:100840008FEF6896E6E00C948810A8E1B0E0EBE248
:10085000F4E00C946C1069837A838B839C832D83E2
:100860003E834F83588789E0E82EF12CEC0EFD1E65
:10087000CE010196B7010E942B068E010F5E1F4F1D
:10088000CE010596B8010E942B068985823040F082
:100890008989823028F0C701B8010E94A30601C0EF
:1008A00081E06896E6E00C948810A8E0B0E0EBE503
:1008B000F4E00C9469109B01AC0183E08983DA01B8
:1008C000C9018827B7FD83959927AA27BB27B82E8A
:1008D000211531054105510519F482E089833AC09B
:1008E0008823A9F0203080E0380780E0480780E8BE
:1008F000580729F460E070E080E09FEC30C0EE24FF
:10090000FF248701E21AF30A040B150B02C07901D8
:100910008A018EE1C82ED12CDC82CB82ED82FE8250
:100920000F831887C801B7010E94070501971816A1
:10093000190684F4082E04C0EE0CFF1C001F111FC2
:100940000A94D2F7ED82FE820F831887C81AD90A5B
:10095000DC82CB82BA82CE0101960E94560528968F
:10096000E9E00C948510ACE0B0E0E9EBF4E00C9425
:10097000701069837A838B839C83CE010196BE01BC
:100980006B5F7F4F0E942B068D81823061F1823038
:1009900050F1843021F48E81882351F12EC02F81B3
:1009A000388537FD20C06E812F3131051CF066235C
:1009B000F9F023C08EE190E0821B930B29853A85E4
:1009C0004B855C8504C056954795379527958A9544
:1009D000D2F76623B1F050954095309521953F4F61
:1009E0004F4F5F4F0EC020E030E040E050E009C0C4
:1009F0002FEF3FEF4FEF5FE704C020E030E040E033
:100A000050E8B901CA012C96E2E00C948C10EF92E8
:100A1000FF920F931F937B018C0180E0E81680E02A
:100A2000F80681E0080780E0180788F48FEFE816E1
:100A3000F1040105110531F028F088E090E0A0E014
:100A4000B0E017C080E090E0A0E0B0E012C080E02D
:100A5000E81680E0F80680E0080781E0180728F033
:100A600088E190E0A0E0B0E004C080E190E0A0E088
:100A7000B0E020E230E040E050E0281B390B4A0BA8
:100A80005B0B04C016950795F794E7948A95D2F707
:100A9000F701E859FF4F8081281B310941095109AD
:100AA000C9011F910F91FF90EF900895DF92EF928F
:100AB000FF920F931F93FC01E480F580068117815C
:100AC000D1808081823048F480E090E0A0E1B0E005
:100AD000E82AF92A0A2B1B2BA5C0843009F49FC0F1
:100AE000823021F4EE24FF24870105C0E114F104D3
:100AF0000105110519F4E0E0F0E096C06281738110
:100B00009FEF623879070CF05BC022E83FEF261BAD
:100B1000370B2A3131052CF020E030E040E050E086
:100B20002AC0B801A701022E04C076956795579593
:100B300047950A94D2F781E090E0A0E0B0E004C0CD
:100B4000880F991FAA1FBB1F2A95D2F70197A109E9
:100B5000B1098E219F21A023B1230097A105B105E2
:100B600021F081E090E0A0E0B0E09A01AB01282BF9
:100B7000392B4A2B5B2BDA01C9018F779070A0705B
:100B8000B07080349105A105B10539F427FF09C083
:100B9000205C3F4F4F4F5F4F04C0215C3F4F4F4F92
:100BA0005F4FE0E0F0E02030A0E03A07A0E04A0725
:100BB000A0E45A0710F0E1E0F0E079018A0127C0D3
:100BC0006038710564F5FB01E158FF4FD801C7019A
:100BD0008F779070A070B07080349105A105B10539
:100BE00039F4E7FE0DC080E490E0A0E0B0E004C07E
:100BF0008FE390E0A0E0B0E0E80EF91E0A1F1B1F93
:100C000017FF05C016950795F794E794319687E08E
:100C100016950795F794E7948A95D1F705C0EE24C9
:100C2000FF248701EFEFF0E06E2F67956627679549
:100C3000902F9F77D794DD24D7948E2F8695492FB8
:100C4000462B582F5D29B701CA011F910F91FF90C4
:100C5000EF90DF900895FC01DB01408151812281FA
:100C6000622F6F7770E0221F2227221F9381892F26
:100C7000880F822B282F30E0991F9927991F1196F2
:100C80009C93119721153105A9F541155105610571
:100C9000710511F482E037C082E89FEF13969C93B0
:100CA0008E9312979A01AB0167E0220F331F441F06
:100CB000551F6A95D1F783E08C930DC0220F331F27
:100CC000441F551F12968D919C911397019713966F
:100CD0009C938E931297203080E0380780E048077D
:100CE00080E4580758F314962D933D934D935C93ED
:100CF000179708952F3F310579F441155105610586
:100D0000710519F484E08C93089564FF03C081E0B9
:100D10008C9312C01C9210C02F57304013963C93F6
:100D20002E93129783E08C9387E0440F551F661F24
:100D3000771F8A95D1F7706414964D935D936D93E8
:100D40007C93179708951F93DC01FB019C919230CF
:100D500008F447C08081823008F443C0943051F4D5
:100D600011961C91843099F58181682F70E0611B88
:100D700071093FC0843021F0923031F48230B9F1F2
:100D80008181882389F12DC011961C9111978230A1
:100D9000F1F081811817D9F412962D913C91139797
:100DA000828193818217930794F028173907BCF04A
:100DB00014968D919D910D90BC91A02D248135812B
:100DC00046815781281739074A075B0718F4112312
:100DD00041F00AC082179307A407B50740F4112316
:100DE00019F061E070E005C06FEF7FEF02C060E0D6
:100DF00070E0CB011F910895DF93CF9300D000D016
:100E0000CDB7DEB78A838A81869586958695898354
:100E10008981282F30E03C832B838B819C8181301A
:100E2000910541F12B813C81223031052CF48B81DD
:100E30009C81009761F056C02B813C8122303105A6
:100E400061F18B819C8183309105D1F14BC08AE3A4
:100E500090E0909369018093680189E390E090931A
:100E60006B0180936A018BE390E090936D01809316
:100E70006C0138C087E390E090936901809368012A
:100E800086E390E090936B0180936A0188E390E0A1
:100E900090936D0180936C0125C084E390E0909362
:100EA00069018093680183E390E090936B018093E4
:100EB0006A0185E390E090936D0180936C0112C00C
:100EC00081E390E0909369018093680180E390E072
:100ED00090936B0180936A0182E390E090936D019F
:100EE00080936C010F900F900F900F90CF91DF9136
:100EF0000895DF93CF9300D000D00F92CDB7DEB727
:100F00008A836B838A81877089838A810E94FC0629
:100F10008B81282F30E03D832C838C819D81813013
:100F2000910519F12C813D812230310509F44CC025
:100F30008C819D81009709F076C0A0916801B091E5
:100F40006901E0916801F09169018081482F8981F0
:100F5000282F30E081E090E0022E02C0880F991F18
:100F60000A94E2F7842B8C935EC0A0916801B09143
:100F70006901E0916801F09169018081482F8981C0
:100F8000282F30E081E090E002C0880F991F2A9559
:100F9000E2F7809584238C93A0916C01B0916D0150
:100FA000E0916C01F0916D018081482F8981282F9B
:100FB00030E081E090E0022E02C0880F991F0A9471
:100FC000E2F7842B8C932FC0A0916801B091690146
:100FD000E0916801F09169018081482F8981282F73
:100FE00030E081E090E002C0880F991F2A95E2F777
:100FF000809584238C93A0916C01B0916D01E09158
:101000006C01F0916D018081482F8981282F30E09B
:1010100081E090E0022E02C0880F991F0A94E2F747
:10102000809584238C930F900F900F900F900F90CA
:10103000CF91DF910895DF93CF9300D000D0CDB74B
:10104000DEB789836A8389810E94FC068A81282F02
:1010500030E03C832B838B819C8181309105A9F00A
:101060002B813C812230310539F18B819C810097A5
:10107000C9F5A0916801B0916901E0916801F09112
:10108000690180818F608C932DC0A0916801B0911F
:101090006901E0916801F09169018081807F8C9302
:1010A000A0916C01B0916D01E0916C01F0916D0126
:1010B00080818F608C9316C0A0916801B091690106
:1010C000E0916801F09169018081807F8C93A0910B
:1010D0006C01B0916D01E0916C01F0916D01808126
:1010E000807F8C930F900F900F900F90CF91DF9196
:1010F0000895DF93CF9300D000D0CDB7DEB78983BA
:101100006A8389810E94FC068A81282F30E03C8313
:101110002B838B819C8181309105A9F02B813C81AF
:101120002230310539F18B819C810097C9F5A0915E
:101130006801B0916901E0916801F09169018081D5
:10114000806F8C932DC0A0916801B0916901E091EE
:101150006801F091690180818F708C93A0916C017E
:10116000B0916D01E0916C01F0916D018081806F13
:101170008C9316C0A0916801B0916901E09168015B
:10118000F091690180818F708C93A0916C01B09176
:101190006D01E0916C01F0916D0180818F708C93F5
:1011A0000F900F900F900F90CF91DF910895DF93E4
:1011B000CF9300D000D0CDB7DEB789836A83898111
:1011C0000E94FC068A81282F30E03C832B838B8190
:1011D0009C818130910581F02B813C812230310549
:1011E000B9F08B819C810097E9F4E0916801F0915E
:1011F00069018FEF808316C0E0916801F091690169
:101200001082E0916C01F0916D018FEF80830AC034
:10121000E0916801F09169011082E0916C01F09118
:101220006D0110820F900F900F900F90CF91DF9172
:101230000895DF93CF9300D00F92CDB7DEB78A83A6
:101240006B838A81877089838A810E94FC068B81E7
:101250008823C9F4A0916C01B0916D01E0916C01FB
:10126000F0916D018081482F8981282F30E081E045
:1012700090E0022E02C0880F991F0A94E2F7809531
:1012800084238C931AC08B818130B9F4A0916C01B6
:10129000B0916D01E0916C01F0916D018081482F5A
:1012A0008981282F30E081E090E0022E02C0880F73
:1012B000991F0A94E2F7842B8C930F900F900F9054
:1012C000CF91DF910895DF93CF9300D0CDB7DEB7F4
:1012D0008A838A81877089838A810E94FC06A09113
:1012E0006C01B0916D01E0916C01F0916D01808114
:1012F000482F8981282F30E081E090E0022E02C043
:10130000880F991F0A94E2F784278C930F900F900F
:10131000CF91DF910895DF93CF9300D0CDB7DEB7A3
:1013200089836A8389810E94FC068A81882361F40B
:10133000A0916C01B0916D01E0916C01F0916D0193
:101340008081807F8C930EC08A81813059F4A09176
:101350006C01B0916D01E0916C01F0916D018081A3
:101360008F608C930F900F90CF91DF910895DF9352
:10137000CF930F92CDB7DEB7898389810E94FC0697
:10138000A0916C01B0916D01E0916C01F0916D0143
:1013900090818FE089278C930F90CF91DF910895F2
:1013A000DF93CF9300D0CDB7DEB789836A8389817D
:1013B0000E94FC06A0916C01B0916D01E0916C015E
:1013C000F0916D018081807F8C93A0916C01B09130
:1013D0006D01E0916C01F0916D0190818A81892B02
:1013E0008C930F900F90CF91DF910895DF93CF935F
:1013F00000D0CDB7DEB789836A8389810E94FC065D
:101400008A81882361F4A0916C01B0916D01E09113
:101410006C01F0916D0180818F708C930EC08A8178
:10142000813059F4A0916C01B0916D01E0916C0193
:10143000F0916D018081806F8C930F900F90CF9110
:10144000DF910895DF93CF930F92CDB7DEB78983F5
:1014500089810E94FC06A0916C01B0916D01E09120
:101460006C01F0916D01908180EF89278C930F9032
:10147000CF91DF910895DF93CF9300D0CDB7DEB742
:1014800089836A8389810E94FC06A0916C01B091D6
:101490006D01E0916C01F0916D0180818F708C93F2
:1014A000A0916C01B0916D01E0916C01F0916D0122
:1014B0008081282F8A81882F90E082959295907F55
:1014C0009827807F9827822B8C930F900F90CF9135
:1014D000DF910895DF93CF9300D0CDB7DEB7898336
:1014E0006A8389810E94FC068A81882331F4E09115
:1014F0006C01F0916D01108209C08A81813031F454
:10150000E0916C01F0916D018FEF80830F900F904F
:10151000CF91DF910895DF93CF930F92CDB7DEB7D0
:10152000898389810E94FC06A0916C01B0916D01B4
:10153000E0916C01F0916D01808180958C930F900A
:10154000CF91DF910895DF93CF9300D0CDB7DEB771
:1015500089836A8389810E94FC06E0916C01F09185
:101560006D011082A0916C01B0916D01E0916C0150
:10157000F0916D0190818A81892B8C930F900F904F
:10158000CF91DF910895DF93CF9300D00F92CDB725
:10159000DEB78B838B8187708A838B810E94FC06E8
:1015A000E0916A01F0916B018081482F50E08A81BF
:1015B000282F30E081E090E002C0880F991F2A9523
:1015C000E2F79A01282339238A81882F90E0A90124
:1015D00002C0559547958A95E2F7CA0189838981AA
:1015E0000F900F900F90CF91DF910895DF93CF93DD
:1015F00000D0CDB7DEB78A838A810E94FC06E091D5
:101600006A01F0916B0180818F70898389810F90CD
:101610000F90CF91DF910895DF93CF9300D0CDB796
:10162000DEB78A838A810E94FC06E0916A01F0910C
:101630006B01808182958F70898389810F900F90D3
:10164000CF91DF910895DF93CF9300D0CDB7DEB770
:101650008A838A810E94FC06E0916A01F0916B0105
:101660008081898389810F900F90CF91DF910895B8
:10167000DF93CF93CDB7DEB78BE060E00E947907B0
:10168000CF91DF910895DF93CF93CDB7DEB78DE093
:1016900060E00E9479078EE062E00E9479078FE0A7
:1016A00060E00E947907CF91DF910895DF93CF9397
:1016B000CDB7DEB78CE062E00E9479078DE062E092
:1016C0000E9479078EE060E00E9479078FE062E077
:1016D0000E947907CF91DF910895DF93CF93CDB723
:1016E000DEB78DE160E00E9479078CE79BE00E9405
:1016F000390ECF91DF910895DF93CF93CDB7DEB749
:101700008DE10E946309CF91DF910895DF93CF931C
:1017100000D0CDB7DEB789838981882F90E0A0E023
:10172000B0E020E03BE147EB50E0BC01CD010E947E
:101730004110DC01CB01BC01CD010E945504DC014C
:10174000CB01BC01CD0120E030E040E858E40E942C
:101750001903DC01CB01BC01CD010E944900DC0171
:10176000CB018093700190937101A0937201B093AB
:101770007301A3E5B0E0E3E5F0E0808181608C9344
:10178000A3E5B0E0E3E5F0E080818D7F8C93A3E5F5
:10179000B0E0E3E5F0E0808184608C93A9E5B0E0FF
:1017A000E9E5F0E0808181608C93E2E5F0E0808102
:1017B000E2E5F0E01082A2E5B0E0E2E5F0E0808151
:1017C0008C93AFE5B0E0EFE5F0E0808180688C932A
:1017D0000F900F90CF91DF9108951F920F920FB647
:1017E0000F9211242F933F934F935F936F937F93A7
:1017F0008F939F93AF93BF93EF93FF93DF93CF9319
:10180000CDB7DEB780916E018F5F80936E018091BE
:101810006E01282F30E040E050E0809170019091FF
:101820007101A0917201B09173010197A109B109F1
:10183000281739074A075B0739F4E0917401F091E2
:101840007501099510926E01CF91DF91FF91EF9193
:10185000BF91AF919F918F917F916F915F914F91C8
:101860003F912F910F900FBE0F901F901895EF9200
:10187000FF920F931F93DF93CF9300D000D0CDB78B
:10188000DEB789836A838981882F90E0A0E0B0E089
:1018900020E03BE147EB50E0BC01CD010E9441104C
:1018A000DC01CB01BC01CD010E9455047B018C0100
:1018B0008A81882F90E0AA2797FDA095BA2FBC01B6
:1018C000CD010E945504DC01CB01BC01CD0120E01B
:1018D00030E040E854E40E941F02DC01CB019C018F
:1018E000AD01C801B7010E941903DC01CB01BC01A5
:1018F000CD010E944900DC01CB01809370019093DF
:101900007101A0937201B0937301A3E5B0E0E3E528
:10191000F0E0808181608C93A3E5B0E0E3E5F0E046
:1019200080818D7F8C93A3E5B0E0E3E5F0E08081DA
:1019300084608C93A9E5B0E0E9E5F0E08081826005
:101940008C93E2E5F0E08081E2E5F0E01082A2E530
:10195000B0E0E2E5F0E080818C93A3E5B0E0E3E560
:10196000F0E0808188608C93A3E5B0E0E3E5F0E0EF
:1019700080818F7B8C93A3E5B0E0E3E5F0E080818C
:1019800080618C93A3E5B0E0E3E5F0E080818F7D9A
:101990008C93ECE5F0E08081ECE5F0E01082ACE5C2
:1019A000B0E0ECE5F0E090818A81892B8C93AFE583
:1019B000B0E0EFE5F0E0808180688C930F900F90AD
:1019C0000F900F90CF91DF911F910F91FF90EF90AB
:1019D00008951F920F920FB60F9211242F933F93E9
:1019E0004F935F936F937F938F939F93AF93BF9327
:1019F000EF93FF93DF93CF93CDB7DEB780916E0166
:101A00008F5F80936E0180916E01282F30E040E05F
:101A100050E08091700190917101A0917201B0919C
:101A200073010197A109B109281739074A075B0714
:101A300039F4E0917401F0917501099510926E01ED
:101A4000CF91DF91FF91EF91BF91AF919F918F91D6
:101A50007F916F915F914F913F912F910F900FBEAA
:101A60000F901F901895DF93CF9300D000D0CDB783
:101A7000DEB78A838A81882F90E0AA2797FDA095F8
:101A8000BA2FBC01CD010E945504DC01CB01BC0181
:101A9000CD0120E030E04FE753E40E941F02DC015B
:101AA000CB01BC01CD0120E030E048EC52E40E94C3
:101AB0001903DC01CB01BC01CD010E944900DC010E
:101AC000CB018983A3E5B0E0E3E5F0E080818160AC
:101AD0008C93A3E5B0E0E3E5F0E080818D7F8C930B
:101AE000A3E5B0E0E3E5F0E0808184608C93E2E57B
:101AF000F0E08081E2E5F0E01082A2E5B0E0E2E50E
:101B0000F0E080818C93ECE5F0E08081ECE5F0E0A2
:101B10001082ACE5B0E0ECE5F0E090818981892BA2
:101B20008C93A3E5B0E0E3E5F0E0808188608C93DE
:101B3000A3E5B0E0E3E5F0E0808180648C93A3E569
:101B4000B0E0E3E5F0E080818F7E8C93A3E5B0E028
:101B5000E3E5F0E0808180628C930F900F900F900E
:101B60000F90CF91DF910895DF93CF9300D000D0F5
:101B7000CDB7DEB78A838A81282F30E084E690E0F3
:101B8000821B930BAA2797FDA095BA2FBC01CD010C
:101B90000E945504DC01CB01BC01CD0120E030E006
:101BA0004FE753E40E941F02DC01CB01BC01CD01D1
:101BB00020E030E048EC52E40E941903DC01CB0144
:101BC000BC01CD010E944900DC01CB018983A3E562
:101BD000B0E0E3E5F0E0808181608C93A3E5B0E0C4
:101BE000E3E5F0E080818D7F8C93A3E5B0E0E3E551
:101BF000F0E0808184608C93E2E5F0E08081E2E5B2
:101C0000F0E01082A2E5B0E0E2E5F0E080818C93A4
:101C1000ECE5F0E08081ECE5F0E01082ACE5B0E0CE
:101C2000ECE5F0E090818981892B8C93A3E5B0E00D
:101C3000E3E5F0E08081877F8C93A3E5B0E0E3E506
:101C4000F0E0808180648C93A3E5B0E0E3E5F0E010
:101C5000808180618C93A3E5B0E0E3E5F0E08081D2
:101C600080628C930F900F900F900F90CF91DF9127
:101C70000895DF93CF9300D0CDB7DEB79A838983E1
:101C800089819A8190937501809374010F900F90D0
:101C9000CF91DF910895DF93CF93CDB7DEB7E9976A
:101CA0000FB6F894DEBF0FBECDBF0E94380B8091F7
:101CB0006F010E94330D80E090E0A2E8B3E48DABA9
:101CC0009EABAFABB8AF6DA97EA98FA998AD20E050
:101CD00030E04AE753E40E941F02DC01CB0189ABEC
:101CE0009AABABABBCAB69A97AA98BA99CA920E044
:101CF00030E040E85FE30E94250488232CF481E073
:101D000090E098AB8FA73FC069A97AA98BA99CA93D
:101D100020E03FEF4FE757E40E94C50318164CF54B
:101D20006DA97EA98FA998AD20E030E040E251E492
:101D30000E941F02DC01CB01BC01CD010E944900C1
:101D4000DC01CB0198AB8FA70FC089E190E09EA783
:101D50008DA78DA59EA50197F1F79EA78DA78FA5AD
:101D600098A9019798AB8FA78FA598A9009769F7B5
:101D700014C069A97AA98BA99CA90E944900DC0119
:101D8000CB0198AB8FA78FA598A99CA78BA78BA5F4
:101D90009CA50197F1F79CA78BA780916F018F5F9E
:101DA00080936F0180916F01843609F080CF80E0CD
:101DB00090E0A2E8B3E48FA398A7A9A7BAA76FA160
:101DC00078A589A59AA520E030E04AE753E40E946F
:101DD0001F02DC01CB018BA39CA3ADA3BEA36BA10F
:101DE0007CA18DA19EA120E030E040E85FE30E944D
:101DF000250488232CF481E090E09AA389A33FC0B6
:101E00006BA17CA18DA19EA120E03FEF4FE757E49D
:101E10000E94C50318164CF56FA178A589A59AA54F
:101E200020E030E040E251E40E941F02DC01CB01DF
:101E3000BC01CD010E944900DC01CB019AA389A31A
:101E40000FC089E190E098A38F8F8F8D98A10197A3
:101E5000F1F798A38F8F89A19AA101979AA389A3DB
:101E600089A19AA1009769F714C06BA17CA18DA1EB
:101E70009EA10E944900DC01CB019AA389A389A1FC
:101E80009AA19E8F8D8F8D8D9E8D0197F1F79E8FDC
:101E90008D8F84E689AF7EC080916F010E94330DE3
:101EA00080E090E0A2E8B3E4898F9A8FAB8FBC8F7B
:101EB000698D7A8D8B8D9C8D20E030E04AE753E46C
:101EC0000E941F02DC01CB018D8B9E8BAF8BB88FE4
:101ED0006D897E898F89988D20E030E040E85FE34E
:101EE0000E94250488232CF481E090E09C8B8B8B4E
:101EF0003FC06D897E898F89988D20E03FEF4FE745
:101F000057E40E94C50318164CF5698D7A8D8B8DA8
:101F10009C8D20E030E040E251E40E941F02DC0191
:101F2000CB01BC01CD010E944900DC01CB019C8B9F
:101F30008B8B0FC089E190E09A8B898B89899A8974
:101F40000197F1F79A8B898B8B899C8901979C8BE0
:101F50008B8B8B899C89009769F714C06D897E896A
:101F60008F89988D0E944900DC01CB019C8B8B8B63
:101F70008B899C89988B8F878F8598890197F1F73A
:101F8000988B8F8780916F01815080936F0189AD0D
:101F9000815089AF89AD882309F07ECF80E090E041
:101FA000A2E8B3E48B879C87AD87BE876B857C8571
:101FB0008D859E8520E030E04AE753E40E941F02B1
:101FC000DC01CB018F839887A987BA876F817885D9
:101FD00089859A8520E030E040E85FE30E9425048F
:101FE00088232CF481E090E09E838D833FC06F8135
:101FF000788589859A8520E03FEF4FE757E40E9476
:10200000C50318164CF56B857C858D859E8520E073
:1020100030E040E251E40E941F02DC01CB01BC0130
:10202000CD010E944900DC01CB019E838D830FC04E
:1020300089E190E09C838B838B819C810197F1F7F0
:102040009C838B838D819E8101979E838D838D815F
:102050009E81009769F72BCE6F81788589859A8557
:102060000E944900DC01CB019E838D838D819E817E
:102070009A83898389819A810197F1F79A83898369
:1020800016CE629FD001739FF001829FE00DF11D7B
:10209000649FE00DF11D929FF00D839FF00D749FE2
:1020A000F00D659FF00D9927729FB00DE11DF91F8E
:1020B000639FB00DE11DF91FBD01CF0111240895EB
:1020C0002F923F924F925F926F927F928F929F9248
:1020D000AF92BF92CF92DF92EF92FF920F931F9336
:1020E000CF93DF93CDB7DEB7CA1BDB0B0FB6F894E7
:1020F000DEBF0FBECDBF09942A88398848885F8427
:102100006E847D848C849B84AA84B984C884DF8097
:10211000EE80FD800C811B81AA81B981CE0FD11D7B
:102120000FB6F894DEBF0FBECDBFED010895F89451
:02213000FFCFDF
:10213200000000000000000000010202030303038C
:102142000404040404040404050505050505050545
:102152000505050505050505060606060606060625
:10216200060606060606060606060606060606060D
:1021720006060606060606060707070707070707F5
:1021820007070707070707070707070707070707DD
:1021920007070707070707070707070707070707CD
:1021A20007070707070707070707070707070707BD
:1021B20007070707070707070808080808080808A5
:1021C200080808080808080808080808080808088D
:1021D200080808080808080808080808080808087D
:1021E200080808080808080808080808080808086D
:1021F200080808080808080808080808080808085D
:10220200080808080808080808080808080808084C
:10221200080808080808080808080808080808083C
:10222200080808080808080808080808080808082C
:08223200080808080808080864
:00000001FF
