:100000000C942A000C9447000C9447000C94470071
:100010000C9447000C9447000C9447000C9418086B
:100020000C9447000C9447000C9447000C94470034
:100030000C9447000C9447000C9447000C94470024
:100040000C9447000C9447000C9447000C94470014
:100050000C94470011241FBECFE5D8E0DEBFCDBF12
:1000600010E0A0E6B0E0E0E5F7E202C005900D92F6
:10007000AE36B107D9F713E0AEE6B0E001C01D928D
:10008000A536B107E1F70E9449000C94A6130C9421
:100090000000AF92BF92CF92DF92EF92FF920F9348
:1000A000DF93CF93CDB7DEB720E630E086E890E06F
:1000B000B90140E550E020E030E000E0EE24FF240C
:1000C000CC24DD24AA24BB240E949C0C20E630E032
:1000D00088EA90E0B90140E550E020E030E001E03E
:1000E000EE24FF24CC24DD24AA24BB240E949C0CF3
:1000F0000E94950E80E090E0CF91DF910F91FF90EC
:10010000EF90DF90CF90BF90AF900895DF93CF93A3
:1001100000D000D0CDB7DEB79C838B83A1E3B0E0E5
:10012000E1E3F0E0808180688C930E946E0F9A83F7
:100130008983A2E3B0E0E2E3F0E0908180E88927E0
:100140008C93CE01019668EC70E00E94EC0DF1CF2B
:10015000DF93CF9300D000D0CDB7DEB79C838B83E5
:10016000A1E3B0E0E1E3F0E0808180648C930E9441
:100170006E0F9A838983A2E3B0E0E2E3F0E090811E
:1001800080E489278C93CE01019668EE73E00E948B
:10019000EC0DF1CFDF93CF93CDB7DEB727970FB636
:1001A000F894DEBF0FBECDBF9D838C836E834F83DB
:1001B0008AE190E00E94A2039A83898389819A81CF
:1001C000009709F46FC080916E0090916F000097C6
:1001D00041F489819A8190936F0080936E000E9410
:1001E00031038E81823010F081E08E83E981FA81C3
:1001F000118E108EE981FA818E81868BE981FA81D8
:100200008F81878BE981FA818C819D8191838083A5
:1002100089819A8102960E94380489819A810C967C
:100220000E943804E981FA8189819A8191878087C7
:10023000E981FA8189819A81938B828B8E81282F23
:1002400030E085E090E0821B930BE981FA8195878D
:100250008487E981FA81968980917000891728F452
:10026000E981FA81868980937000E981FA81868923
:10027000282F30E0C901880F991F880F991F880F18
:10028000991F820F931FAC0149585F4F89819A8152
:100290009C012E5F3F4FCA01B9010E94480481E0D2
:1002A0008B8302C08FEF8B838B8127960FB6F894D8
:1002B000DEBF0FBECDBFCF91DF910895DF93CF9307
:1002C00000D000D000D0CDB7DEB79C838B837E8377
:1002D0006D8320917100309172008B819C81820F1F
:1002E000931F9A83898380916E0090916F0002968C
:1002F0000E940005E0916E00F0916F0089819A8163
:1003000093838283209171003091720089819A8158
:100310008217930770F480919D0090919E00209128
:100320006E0030916F002E5F3F4FB9010E94940420
:100330000DC080919B0090919C0020916E003091A7
:100340006F002E5F3F4FB9010E9494048D819E8102
:10035000009761F080916E0090916F009C01245F86
:100360003F4F8D819E81B9010E94940426960FB65D
:10037000F894DEBF0FBECDBFCF91DF910895DF931C
:10038000CF9300D0CDB7DEB73AC0F894E091A40087
:10039000F091A500868197819A83898389819A81CA
:1003A0000C960E940005789489819A8102960E9499
:1003B0000005E981FA81968980917000891728F4F7
:1003C000E981FA81868980937000E981FA818689C2
:1003D000282F30E0C901880F991F880F991F880FB7
:1003E000991F820F931FAC0149585F4F89819A81F1
:1003F0009C012E5F3F4FCA01B9010E9448048091C1
:100400009F00882309F0C1CF0F900F90CF91DF910B
:100410000895DF93CF9300D000D0CDB7DEB70E9410
:100420006E0F2091730030917400821B930B909398
:1004300076008093750085C0809171009091720064
:100440000196909372008093710080917500909155
:1004500076000197909376008093750080917100EB
:1004600090917200009709F064C080919B00909178
:100470009C009A83898380919D0090919E00909327
:100480009C0080939B0089819A8190939E00809329
:100490009D004FC0E0919B00F0919C000580F6818B
:1004A000E02D868197819C838B83EB81FC81228167
:1004B000338180917100909172008217930708F444
:1004C00040C0F8948B819C8102960E940005EB81CC
:1004D000FC8184899589009729F08B819C810C96F9
:1004E0000E9400057894EB81FC81968980917000D0
:1004F000891728F4EB81FC81868980937000EB8159
:10050000FC818689282F30E0C901880F991F880F48
:10051000991F880F991F820F931FAC0149585F4F95
:100520008B819C819C012E5F3F4FCA01B9010E94C3
:100530004804E0919B00F0919C008081882309F0A1
:10054000A9CF8091750090917600009709F074CF43
:100550008091710090917200909374008093730069
:100560000F900F900F900F90CF91DF910895DF9330
:10057000CF9300D0CDB7DEB70E94BF010E94090221
:100580000AC080917000882309F466C080917000D1
:1005900081508093700080917000282F30E0C90155
:1005A000880F991F880F991F880F991F820F931F1B
:1005B000FC01E958FF4F8081882319F38091700076
:1005C000282F30E0C901880F991F880F991F880FC5
:1005D000991F820F931F89589F4F9A838983E981BE
:1005E000FA810180F281E02D82819381E981FA8193
:1005F00092838183E981FA812181328189819A8183
:1006000003962817390759F4E981FA810180F281AC
:10061000E02D82819381E981FA8192838183E9814E
:10062000FA810180F281E02D8681978190936F009D
:1006300080936E00E0916E00F0916F0040815181D7
:1006400080916E0090916F00E0916E00F0916F00CC
:100650002789622FFA0109950F900F90CF91DF91B2
:100660000895DF93CF930F92CDB7DEB7198213C0F1
:100670008981282F30E0C901880F991F880F991FA1
:10068000880F991F820F931F89589F4F0E940E0455
:1006900089818F5F89838981823050F389E890E076
:1006A0000E940E0482E990E00E940E048FE990E01F
:1006B0000E940E0489E890E090939C0080939B0038
:1006C00082E990E090939E0080939D000F90CF91DF
:1006D000DF910895DF93CF9300D000D00F92CDB774
:1006E000DEB79D838C83EC81FD810580F681E02D52
:1006F000868197819B838A838A819B810C960E9445
:1007000000058A819B819C01245F3F4F8FE990E027
:10071000B9010E944804EA81FB819689E0916E004C
:10072000F0916F008689981718F081E0898301C0E5
:10073000198289810F900F900F900F900F90CF9199
:10074000DF910895DF93CF9300D000D0CDB7DEB70F
:100750009C838B831A8219820E94D80E8091A800F4
:100760009091A9002B813C81820F931F22E0883554
:10077000920718F52091A8003091A9008B819C81E7
:10078000280F391F8091A8009091A9008217930724
:10079000A0F48091A8009091A90086559F4F9A835C
:1007A00089832091A8003091A9008B819C81820FC0
:1007B000931F9093A9008093A8000E94E40E898162
:1007C0009A810F900F900F900F90CF91DF91089525
:1007D000DF93CF9300D0CDB7DEB79A8389830F9094
:1007E0000F90CF91DF910895DF93CF93CDB7DEB710
:1007F0001092A9001092A800CF91DF910895DF9385
:10080000CF93CDB7DEB72091A8003091A90088E53D
:1008100092E0821B930BCF91DF910895DF93CF93EA
:1008200000D0CDB7DEB79A83898389819A810396F8
:10083000E981FA8192838183E981FA818FEF9FEFC9
:100840009483838389819A810396E981FA819683CF
:10085000858389819A810396E981FA8190878783CC
:10086000E981FA8110820F900F90CF91DF91089566
:10087000DF93CF9300D0CDB7DEB79A838983E98128
:10088000FA81118610860F900F90CF91DF91089515
:10089000DF93CF9300D000D000D0CDB7DEB79C83DC
:1008A0008B837E836D83EB81FC81818192819A832E
:1008B0008983E981FA8182819381ED81FE8193832D
:1008C0008283EB81FC8181819281ED81FE81958320
:1008D0008483E981FA810280F381E02D8D819E81FC
:1008E000958384838D819E81E981FA8193838283BC
:1008F0008D819E81EB81FC8192838183ED81FE81DC
:100900008B819C8191878087EB81FC8180818F5FC7
:10091000EB81FC81808326960FB6F894DEBF0FBE74
:10092000CDBFCF91DF910895DF93CF93CDB7DEB7E1
:1009300028970FB6F894DEBF0FBECDBF9E838D8380
:1009400078876F83EF81F885808191819A8389838D
:1009500089819A812FEF8F3F920739F4ED81FE81D3
:10096000878190859C838B8318C08D819E8103969F
:100970009C838B8306C0EB81FC81828193819C8365
:100980008B83EB81FC810280F381E02D208131811A
:1009900089819A818217930770F7EB81FC818281AC
:1009A0009381EF81F88593838283EF81F8850280BC
:1009B000F381E02D8F81988595838483EF81F8857D
:1009C0008B819C81958384838F819885EB81FC81C9
:1009D00093838283EF81F8858D819E8191878087C3
:1009E000ED81FE8180818F5FED81FE81808328967D
:1009F0000FB6F894DEBF0FBECDBFCF91DF91089543
:100A0000DF93CF9300D000D0CDB7DEB79C838B832C
:100A1000EB81FC81A281B381EB81FC818481958192
:100A200015969C938E931497EB81FC81A481B581DC
:100A3000EB81FC818281938113969C938E93129714
:100A4000EB81FC81808591859A838983E981FA8194
:100A5000218132818B819C812817390741F4EB81F8
:100A6000FC8184819581E981FA8192838183EB8184
:100A7000FC8111861086E981FA8180818150E981AB
:100A8000FA8180830F900F900F900F90CF91DF919C
:100A90000895DF93CF93CDB7DEB728970FB6F894BC
:100AA000DEBF0FBECDBF9C838B837E836D83588753
:100AB0004F83EB81FC8181E180838B819C81019755
:100AC0009C838B83EB81FC8182E280838B819C8180
:100AD00001979C838B83EB81FC8183E380838B81F3
:100AE0009C8101979C838B838D819E819A838983CE
:100AF0008981EB81FC8180838B819C8101979C8320
:100B00008B8389819A81892F99279A838983898107
:100B1000EB81FC8180838B819C8101979C838B83FB
:100B2000EB81FC8110828B819C8101979C838B835C
:100B3000EB81FC8180E880838B819C8101979C8381
:100B40008B83EB81FC8110828B819C8101979C833C
:100B50008B83EB81FC8182E080838B819C81019778
:100B60009C838B83EB81FC8183E080838B819C81E0
:100B700001979C838B83EB81FC8184E080838B8154
:100B80009C8101979C838B83EB81FC8185E0808332
:100B90008B819C8101979C838B83EB81FC8186E018
:100BA00080838B819C8101979C838B83EB81FC816B
:100BB00087E080838B819C8101979C838B83EB8171
:100BC000FC8188E080838B819C8101979C838B834F
:100BD000EB81FC8189E080838B819C8101979C83E0
:100BE0008B83EB81FC8180E180838B819C810197E9
:100BF0009C838B83EB81FC8181E180838B819C8151
:100C000001979C838B83EB81FC8182E180838B81C4
:100C10009C8101979C838B83EB81FC8183E18083A2
:100C20008B819C8101979C838B83EB81FC8184E188
:100C300080838B819C8101979C838B83EB81FC81DA
:100C400085E180838B819C8101979C838B83EB81E1
:100C5000FC8186E180838B819C8101979C838B83BF
:100C6000EB81FC8187E180838B819C8101979C8350
:100C70008B83EB81FC8188E180838B819C81019750
:100C80009C838B83EB81FC8189E180838B819C81B8
:100C900001979C838B83EB81FC8180E280838B8135
:100CA0009C8101979C838B83EB81FC8181E2808313
:100CB0008B819C8101979C838B83EB81FC8182E2F9
:100CC00080838B819C8101979C838B83EB81FC814A
:100CD00083E280838B819C8101979C838B838F81AE
:100CE00098859A8389838981EB81FC8180838B81BC
:100CF0009C8101979C838B8389819A81892F992775
:100D00009A8389838981EB81FC8180838B819C819B
:100D100001979C838B83EB81FC8186E280838B81AE
:100D20009C8101979C838B83EB81FC8187E280838C
:100D30008B819C8101979C838B83EB81FC8188E272
:100D400080838B819C8101979C838B83EB81FC81C9
:100D500089E280838B819C8101979C838B83EB81CB
:100D6000FC8180E380838B819C8101979C838B83B2
:100D7000EB81FC8181E380838B819C8101979C8343
:100D80008B838B819C8128960FB6F894DEBF0FBEB3
:100D9000CDBFCF91DF910895DF93CF93CDB7DEB76D
:100DA0000E94BC07A0910203B0910303CD91CDBF77
:100DB000DD91DEBFFF91EF91DF91CF91BF91AF91B8
:100DC0009F918F917F916F915F914F913F912F9163
:100DD0001F910F91FF90EF90DF90CF90BF90AF9059
:100DE0009F908F907F906F905F904F903F902F904B
:100DF0001F900F900FBE0F90089581E0CF91DF916B
:100E00000895DF93CF93CDB7DEB7CF91DF910895EB
:100E10000F920FB6F8940F921F9211242F923F92C7
:100E20004F925F926F927F928F929F92AF92BF92FA
:100E3000CF92DF92EF92FF920F931F932F933F93E6
:100E40004F935F936F937F938F939F93AF93BF93D2
:100E5000CF93DF93EF93FF93A0910203B09103032D
:100E60000DB60D920EB60D920E947810A09102035D
:100E7000B0910303CD91CDBFDD91DEBFFF91EF9126
:100E8000DF91CF91BF91AF919F918F917F916F91A2
:100E90005F914F913F912F911F910F91FF90EF9094
:100EA000DF90CF90BF90AF909F908F907F906F908A
:100EB0005F904F903F902F901F900F900FBE0F901C
:100EC00008950F920FB6F8940F921F9211242F924B
:100ED0003F924F925F926F927F928F929F92AF92CA
:100EE000BF92CF92DF92EF92FF920F931F932F93B7
:100EF0003F934F935F936F937F938F939F93AF93A2
:100F0000BF93CF93DF93EF93FF93A0910203B09130
:100F100003030DB60D920EB60D920E94A30F0E9410
:100F20007810A0910203B0910303CD91CDBFDD9164
:100F3000DEBFFF91EF91DF91CF91BF91AF919F9174
:100F40008F917F916F915F914F913F912F911F9161
:100F50000F91FF90EF90DF90CF90BF90AF909F9058
:100F60008F907F906F905F904F903F902F901F9049
:100F70000F900FBE0F900895DF93CF9300D000D055
:100F800000D0CDB7DEB780EE9EE2A0E0B0E08B836C
:100F90009C83AD83BE838B819C81AD81BE8168942F
:100FA00015F8B695A795979587951694D1F78B83E5
:100FB0009C83AD83BE838B819C81AD81BE81019773
:100FC000A109B1098B839C83AD83BE838B81898307
:100FD0008B819C81AD81BE81892F9A2FAB2FBB273E
:100FE0008B839C83AD83BE838B818A83EBE4F0E0AB
:100FF0008A818083EAE4F0E0898180838BE08983C1
:10100000EEE4F0E089818083E9E5F0E08081898386
:10101000898180618983E9E5F0E089818083269672
:101020000FB6F894DEBF0FBECDBFCF91DF9108950C
:101030000E9461071895DF93CF93CDB7DEB728974D
:101040000FB6F894DEBF0FBECDBF8F8368871A82BC
:1010500019828F81882309F48CC08FE190E00E946F
:10106000A2039E838D838D819E81009709F481C0A8
:101070008F81282F30E08885882F90E0AC01249F55
:10108000C001259F900D349F900D112401969C83E3
:101090008B838B819C810E94A203ED81FE819183D1
:1010A0008083ED81FE8180819181009709F45DC08C
:1010B000ED81FE81408151818F81282F30E088852C
:1010C000882F90E0BC01269FC001279F900D369F7E
:1010D000900D1124840F951FED81FE8193838283EF
:1010E000ED81FE81128EED81FE8180819181ED8105
:1010F000FE8195838483ED81FE81408151818F81C2
:10110000882F90E09C01215030408885882F90E006
:10111000BC01269FC001279F900D369F900D112482
:10112000840F951FED81FE8197838683ED81FE817B
:101130008F81838FED81FE818885848FED81FE8193
:101140008FEF858FED81FE818FEF868F8D819E8160
:1011500008960E940E048D819E8141960E940E0485
:101160008D819E819A83898304C08D819E810E9496
:10117000E80389819A8128960FB6F894DEBF0FBEE6
:10118000CDBFCF91DF910895DF93CF93CDB7DEB779
:101190002C970FB6F894DEBF0FBECDBF9E838D8314
:1011A00078876F835A8749872B8719820FB6F894FF
:1011B0000F92ED81FE81928DED81FE81838D9817D6
:1011C000D8F48D819E812F813885B9014B850E948D
:1011D000FF0AED81FE818189882349F08D819E81FE
:1011E00041960E941411813011F40E9408070F905B
:1011F0000FBE81E08C875CC089859A85009721F4B9
:101200000F900FBE1C8654C08981882331F4CE0113
:1012100002960E947C1181E089830F900FBE0E948C
:10122000D80E0FB6F8940F92ED81FE81858D8F3F19
:1012300019F4ED81FE81158EED81FE81868D8F3F43
:1012400019F4ED81FE81168E0F900FBECE0102962D
:101250009E01275F3F4FB9010E949511882309F530
:101260008D819E810E94630C8823A1F08D819E81D7
:10127000089629853A85B9010E94DE108D819E81EC
:101280000E94DC0B0E94E40E882309F08FCF0E949D
:1012900008078CCF8D819E810E94DC0B0E94E40E9A
:1012A00085CF8D819E810E94DC0B0E94E40E1C86FE
:1012B0008C852C960FB6F894DEBF0FBECDBFCF91B4
:1012C000DF910895DF93CF93CDB7DEB729970FB69F
:1012D000F894DEBF0FBECDBF9C838B837E836D836E
:1012E00058874F8329871982EB81FC81928DEB818E
:1012F000FC81838D981740F58B819C812D813E81E7
:10130000B90149850E94FF0AEB81FC81868D8F3FE0
:1013100089F4EB81FC818189882399F08B819C8100
:1013200041960E941411882361F0EF81F88581E0D5
:10133000808307C0EB81FC81868D8F5FEB81FC8110
:10134000868F81E08A8301C01A828A8129960FB62E
:10135000F894DEBF0FBECDBFCF91DF910895DF932C
:10136000CF93CDB7DEB72E970FB6F894DEBF0FBE82
:10137000CDBF98878F837A8769875C874B872D8756
:101380001B820FB6F8940F92EF81F885828D882327
:1013900009F43FC0EF81F885868197819A8389831C
:1013A0008F81988529853A85B9010E94940B8D8596
:1013B0008823B1F4EF81F885828D8150EF81F88523
:1013C000828FEF81F88580858823F1F08F81988561
:1013D00008960E9414118130B9F40E94080714C0C5
:1013E000EF81F88589819A8197838683EF81F885DB
:1013F0008189882349F08F81988541960E94141134
:10140000882311F00E9408070F900FBE81E08E879D
:101410005CC08B859C85009721F40F900FBE1E86C3
:1014200054C08B81882331F4CE0104960E947C1134
:1014300081E08B830F900FBE0E94D80E0FB6F894F8
:101440000F92EF81F885858D8F3F19F4EF81F88534
:10145000158EEF81F885868D8F3F19F4EF81F88521
:10146000168E0F900FBECE0104969E01255F3F4F52
:10147000B9010E949511882309F58F8198850E94F2
:10148000300C8823A1F08F81988541962B853C856F
:10149000B9010E94DE108F8198850E94DC0B0E94AA
:1014A000E40E882309F06DCF0E9408076ACF8F8170
:1014B00098850E94DC0B0E94E40E63CF8F81988593
:1014C0000E94DC0B0E94E40E1E868E852E960FB6BF
:1014D000F894DEBF0FBECDBFCF91DF910895DF93AB
:1014E000CF93CDB7DEB728970FB6F894DEBF0FBE07
:1014F000CDBF9C838B837E836D8358874F831982F6
:10150000EB81FC81828D882371F18B819C812D81FF
:101510003E81B9010E94940BEB81FC81828D815048
:10152000EB81FC81828FEB81FC81858D8F3F89F47B
:10153000EB81FC818085882399F08B819C810896C2
:101540000E941411882361F0EF81F88581E0808387
:1015500007C0EB81FC81858D8F5FEB81FC81858FDE
:1015600081E08A8301C01A828A8128960FB6F89496
:10157000DEBF0FBECDBFCF91DF910895DF93CF9334
:1015800000D00F92CDB7DEB79B838A830FB6F89455
:101590000F92EA81FB81828D89830F900FBE898132
:1015A0000F900F900F90CF91DF910895DF93CF931D
:1015B00000D00F92CDB7DEB79B838A83EA81FB818F
:1015C000828D898389810F900F900F90CF91DF9149
:1015D0000895DF93CF9300D0CDB7DEB79A83898388
:1015E000E981FA81808191810E94E80389819A8151
:1015F0000E94E8030F900F90CF91DF910895DF9341
:10160000CF9300D000D00F92CDB7DEB79A838983F5
:101610007C836B834D83E981FA81848D882309F46F
:1016200074C08D81882399F5E981FA81648175817F
:10163000E981FA81848D482F50E02B813C81CB01D8
:10164000B9010E948713E981FA8124813581E981FA
:10165000FA81848D882F90E0820F931FE981FA81AF
:1016600095838483E981FA8124813581E981FA8136
:10167000828193812817390708F447C0E981FA81EC
:1016800080819181E981FA81958384833EC0E981DB
:10169000FA8166817781E981FA81848D482F50E053
:1016A0002B813C81CB01B9010E948713E981FA812A
:1016B00026813781E981FA81848D882F90E0909589
:1016C00081959F4F820F931FE981FA8197838683CB
:1016D000E981FA8126813781E981FA8180819181CE
:1016E0002817390790F4E981FA8122813381E98151
:1016F000FA81848D882F90E0909581959F4F820F7D
:10170000931FE981FA8197838683E981FA81828D2B
:101710008F5FE981FA81828F0F900F900F900F9069
:101720000F90CF91DF910895DF93CF9300D000D039
:10173000CDB7DEB79A8389837C836B83E981FA8195
:1017400080819181009789F1E981FA812681378131
:10175000E981FA81848D882F90E0820F931FE981BF
:10176000FA8197838683E981FA8126813781E9812D
:10177000FA81828193812817390740F0E981FA8143
:1017800080819181E981FA8197838683E981FA8159
:1017900046815781E981FA81848D282F30E08B8141
:1017A0009C81BA01A9010E9487130F900F900F909E
:1017B0000F90CF91DF910895DF93CF9300D0CDB7F5
:1017C000DEB79A8389830FB6F8940F9215C0E9812A
:1017D000FA8181898823A9F089819A8141960E94A2
:1017E0001411882311F00E94F211E981FA81868D8B
:1017F0008150E981FA81868FE981FA81868D1816F8
:1018000034F3E981FA818FEF868F0F900FBE0FB608
:10181000F8940F9215C0E981FA8180858823A9F098
:1018200089819A8108960E941411882311F00E94E0
:10183000F211E981FA81858D8150E981FA81858FE4
:10184000E981FA81858D181634F3E981FA818FEFE9
:10185000858F0F900FBE0F900F90CF91DF9108955D
:10186000DF93CF9300D00F92CDB7DEB79B838A83EF
:101870000FB6F8940F92EA81FB81828D198288233A
:1018800011F481E089830F900FBE89810F900F9032
:101890000F90CF91DF910895DF93CF9300D00F92F7
:1018A000CDB7DEB79B838A83EA81FB81828D198263
:1018B000882311F481E0898389810F900F900F9024
:1018C000CF91DF910895DF93CF9300D00F92CDB7E2
:1018D000DEB79B838A830FB6F8940F92EA81FB816F
:1018E000928DEA81FB81838D1982981711F481E032
:1018F00089830F900FBE89810F900F900F90CF9129
:10190000DF910895DF93CF9300D00F92CDB7DEB76C
:101910009B838A83EA81FB81928DEA81FB81838D9F
:101920001982981711F481E0898389810F900F90B3
:101930000F90CF91DF910895AF92BF92CF92DF9237
:10194000EF92FF920F931F93DF93CF93CDB7DEB744
:1019500064970FB6F894DEBF0FBECDBF9F838E8312
:10196000798768875B874A873D872C870E87F88A47
:10197000EF86DA8AC98ABC8AAB8A8A859B852989DF
:101980003A89B9010E9421139C838B838B819C81AE
:10199000009709F499C0EB81FC812789308D8A85F5
:1019A0009B850197820F931F9A8389838B819C81EA
:1019B00028853985EB89FC89AA85BB85B9014E85C7
:1019C0009F018D010E94061289819A812E813F819B
:1019D0004C855D85B9010E944905EB81FC819183AD
:1019E00080838F859889009731F0EF85F8898B8106
:1019F0009C81918380830FB6F8940F9280910503A8
:101A00008F5F8093050380910203909103030097F9
:101A100069F48B819C8190930303809302038091EE
:101A200005038130A9F40E945D1212C080910A035F
:101A3000882371F4E0910203F091030396898E8567
:101A4000891730F08B819C8190930303809302036C
:101A5000EB81FC81968980910803891728F4EB813A
:101A6000FC8186898093080380910F038F5F8093A8
:101A70000F03EB81FC81968980910903891728F473
:101A8000EB81FC81868980930903EB81FC81868947
:101A9000282F30E0C901880F991F880F991F880FE0
:101AA000991F820F931FAC01405F5C4F8B819C811B
:101AB0009C012E5F3F4FCA01B9010E94480481E09A
:101AC0008D830F900FBE02C08FEF8D838D8181308B
:101AD00071F480910A03882351F0E0910203F091A0
:101AE000030396898E85981710F40E9408078D814C
:101AF00064960FB6F894DEBF0FBECDBFCF91DF91D5
:101B00001F910F91FF90EF90DF90CF90BF90AF901B
:101B10000895DF93CF9300D000D000D0CDB7DEB7CB
:101B20009C838B830FB6F8940F922091020330911F
:101B300003038B819C818217930711F41C821B8203
:101B40008B819C81009739F480910203909103036B
:101B50009E838D8304C08B819C819E838D838D8128
:101B60009E819A83898389819A8102960E940005C9
:101B7000E981FA8184899589009729F089819A8180
:101B80000C960E94000589819A819C012E5F3F4F2F
:101B90008CE593E0B9010E944804809104038F5FB3
:101BA0008093040380910F038F5F80930F030F9046
:101BB0000FBE80910A03882331F08B819C810097AE
:101BC00011F40E94080726960FB6F894DEBF0FBEE8
:101BD000CDBFCF91DF910895DF93CF93CDB7DEB71F
:101BE00028970FB6F894DEBF0FBECDBF9E838D83BE
:101BF00078876F8319820E94D80EED81FE81208143
:101C000031818F819885820F931F9C838B83ED8117
:101C1000FE81208131818091060390910703821714
:101C20009307A8F4ED81FE81208131818B819C8115
:101C30008217930700F520910603309107038B81EB
:101C40009C8128173907B8F481E0898314C0ED819D
:101C5000FE81208131818B819C818217930748F01E
:101C600020910603309107038B819C812817390747
:101C700010F481E08983ED81FE818B819C819183C9
:101C800080838981882359F0809102039091030316
:101C900002960E9400058B819C810E94D8120E94AE
:101CA000E40E8A838A81882311F40E94080728960B
:101CB0000FB6F894DEBF0FBECDBFCF91DF91089570
:101CC000DF93CF9300D000D00F92CDB7DEB79D83C6
:101CD0008C8319828C819D810097D1F00E94D80E4F
:101CE00020910603309107038C819D81820F931F01
:101CF0009B838A83809102039091030302960E9442
:101D000000058A819B810E94D8120E94E40E89837B
:101D10008981882311F40E9408070F900F900F907B
:101D20000F900F90CF91DF910895AF92BF92CF9215
:101D3000DF92EF92FF920F93DF93CF930F92CDB785
:101D4000DEB726E630E08CEF91E1B90145E550E0E1
:101D500020E030E000E0EE24FF24CC24DD24AA249F
:101D6000BB240E949C0C89838981813051F4F894B2
:101D700081E080930A0310920703109206030E94E9
:101D8000CC060F90CF91DF910F91FF90EF90DF90F5
:101D9000CF90BF90AF900895DF93CF93CDB7DEB7CC
:101DA000F89410920A030E940107CF91DF910895E1
:101DB000DF93CF93CDB7DEB780910B038F5F809316
:101DC0000B03CF91DF910895DF93CF9300D000D024
:101DD000CDB7DEB71A820FB6F8940F9280910B033D
:101DE000815080930B0380910B03882309F06CC012
:101DF00080910503882309F467C0198241C0E091EE
:101E00005803F0915903868197819C838B838B8142
:101E10009C810C960E9400058B819C8102960E94F9
:101E20000005EB81FC81968980910903891728F4CC
:101E3000EB81FC81868980930903EB81FC81868993
:101E4000282F30E0C901880F991F880F991F880F2C
:101E5000991F820F931F805F9C4F2B813C812E5FC7
:101E60003F4FB9010E944804EB81FC819689E091C3
:101E70000203F09103038689981710F081E08983AB
:101E800080915303882309F0BACF80910C038823F3
:101E900071F007C00E94A30F80910C0381508093C2
:101EA0000C0380910C038823A9F781E08983898141
:101EB000813021F080910D03813031F481E08A83FB
:101EC00010920D030E9408070F900FBE8A810F9099
:101ED0000F900F900F90CF91DF910895DF93CF93E4
:101EE00000D0CDB7DEB70FB6F8940F9280910603FD
:101EF000909107039A8389830F900FBE89819A81FD
:101F00000F900F90CF91DF910895DF93CF9300D082
:101F10000F92CDB7DEB71982809106039091070327
:101F20009B838A838A819B810F900F900F90CF9122
:101F3000DF910895DF93CF93CDB7DEB7809105038E
:101F4000CF91DF910895DF93CF9300D000D000D0E0
:101F5000CDB7DEB780910B03882309F0BBC0809119
:101F6000060390910703019690930703809306035D
:101F700080910603909107030097D1F580914F035C
:101F8000909150039C838B838091510390915203D5
:101F90009093500380934F038B819C8190935203C5
:101FA0008093510380910E038F5F80930E03E09125
:101FB0004F03F09150038081882339F48FEF9FEF16
:101FC00090936C0080936B0013C0E0914F03F091ED
:101FD00050030580F681E02D868197819E838D8355
:101FE000ED81FE818281938190936C0080936B00E0
:101FF000209106033091070380916B0090916C0053
:102000002817390708F46BC0E0914F03F091500393
:102010008081882339F48FEF9FEF90936C00809339
:102020006B005DC0E0914F03F09150030580F68195
:10203000E02D868197819E838D83ED81FE81828153
:1020400093819A83898320910603309107038981C4
:102050009A812817390738F489819A8190936C0006
:1020600080936B003CC08D819E8102960E9400058A
:10207000ED81FE8184899589009729F08D819E816B
:102080000C960E940005ED81FE81968980910903DE
:10209000891728F4ED81FE81868980930903ED81FB
:1020A000FE818689282F30E0C901880F991F880F8B
:1020B000991F880F991F820F931FAC01405F5C4FDF
:1020C0008D819E819C012E5F3F4FCA01B9010E9404
:1020D00048049ACF80910C038F5F80930C0326965F
:1020E0000FB6F894DEBF0FBECDBFCF91DF9108953C
:1020F000DF93CF9300D0CDB7DEB780910B03882359
:1021000049F081E080930D0354C080910903815010
:102110008093090380910903282F30E0C901880FBB
:10212000991F880F991F880F991F820F931FFC0119
:10213000E05FFC4F8081882341F380910903282FC1
:1021400030E0C901880F991F880F991F880F991FC8
:10215000820F931F805F9C4F9A838983E981FA8164
:102160000180F281E02D82819381E981FA8192835D
:102170008183E981FA812181328189819A81039663
:102180002817390759F4E981FA810180F281E02D9D
:1021900082819381E981FA8192838183E981FA8145
:1021A0000180F281E02D86819781909303038093D3
:1021B00002030F900F90CF91DF910895DF93CF939B
:1021C00000D000D000D0CDB7DEB79C838B837E8358
:1021D0006D834B815C8180910203909103039C018C
:1021E000245F3F4FCA01B9010E9494048091020309
:1021F0009091030302960E940005209106033091FE
:1022000007038D819E81820F931F9A838983898121
:102210009A810E94D81226960FB6F894DEBF0FBEA0
:10222000CDBFCF91DF910895DF93CF9300D000D041
:102230000F92CDB7DEB79D838C83EC81FD81058045
:10224000F681E02D868197819B838A838A819B8199
:102250000C960E94000580910B03882361F58A810A
:102260009B8102960E940005EA81FB8196898091FC
:102270000903891728F4EA81FB8186898093090381
:10228000EA81FB818689282F30E0C901880F991FD8
:10229000880F991F880F991F820F931FAC01405F11
:1022A0005C4F8A819B819C012E5F3F4FCA01B9011F
:1022B0000E9448040AC08A819B819C01245F3F4F91
:1022C00083E593E0B9010E944804EA81FB81968985
:1022D000E0910203F09103038689981718F081E0DA
:1022E000898301C0198289810F900F900F900F9000
:1022F0000F90CF91DF910895DF93CF9300D0CDB7AA
:10230000DEB79A83898380910E03E981FA81808305
:102310008091060390910703E981FA81928381837A
:102320000F900F90CF91DF910895DF93CF9300D05E
:1023300000D00F92CDB7DEB79B838A837D836C83F9
:102340000FB6F8940F92EA81FB81908180910E0381
:10235000981771F0EA81FB81218132818091060317
:10236000909107038217930718F081E089832FC0AB
:102370002091060330910703EA81FB8181819281DC
:10238000281B390BEC81FD81808191812817390749
:10239000E0F4EC81FD8140815181EA81FB81218162
:1023A00032818091060390910703B901681B790B74
:1023B000CB01840F951FEC81FD81918380838A81FD
:1023C0009B810E947C11198202C081E089830F9059
:1023D0000FBE89810F900F900F900F900F90CF91AB
:1023E000DF910895DF93CF93CDB7DEB781E080937F
:1023F0000D03CF91DF910895DF93CF9300D0CDB738
:10240000DEB79A8389830E949A12FDCF0F931F93A0
:10241000DF93CF93CDB7DEB729970FB6F894DEBF21
:102420000FBECDBF9A8389837C836B834D833F83AB
:102430002E831987088789819A8149962B813C814F
:10244000B90148E050E00E949713E981FA8110A297
:102450008D81853010F084E08D83E981FA818D8152
:10246000868B89819A8102960E94380489819A819B
:102470000C960E943804E981FA8189819A819187BA
:1024800080878D81282F30E085E090E0821B930BC0
:10249000E981FA8195878487E981FA8189819A8126
:1024A000938B828B29960FB6F894DEBF0FBECDBFFB
:1024B000CF91DF911F910F910895DF93CF930F92EA
:1024C000CDB7DEB7198213C08981282F30E0C9014A
:1024D000880F991F880F991F880F991F820F931FCC
:1024E000805F9C4F0E940E0489818F5F8983898160
:1024F000853050F38DE393E00E940E0486E493E070
:102500000E940E0483E593E00E940E048CE593E0A4
:102510000E940E048DE393E09093500380934F0349
:1025200086E493E090935203809351030F90CF91F0
:10253000DF910895DF93CF9300D00F92CDB7DEB730
:1025400080910403882371F10E94D80E80915C036E
:102550001B82882311F481E08B830E94E40E8B811F
:10256000882301F50FB6F8940F92E0916103F09182
:102570006203868197819A83898389819A810296F1
:102580000E9400058091050381508093050380918E
:1025900004038150809304030F900FBE89819A81B8
:1025A0000E9471130F900F900F90CF91DF910895BB
:1025B000DF93CF9300D0CDB7DEB79A838983E091C4
:1025C0000203F091030389819A819383828320918E
:1025D00006033091070389819A818217930770F46B
:1025E0008091510390915203209102033091030393
:1025F0002E5F3F4FB9010E9494041EC040914F03CB
:102600005091500380910203909103039C012E5F2F
:102610003F4FCA01B9010E94940420916B00309190
:102620006C0089819A818217930730F489819A819D
:1026300090936C0080936B000F900F90CF91DF917F
:102640000895DF93CF93CDB7DEB728970FB6F894F0
:10265000DEBF0FBECDBF9C838B837E836D8381E203
:1026600090E00E94A2039A83898389819A810097CE
:1026700069F18D819E81009739F48B819C810E9444
:10268000A20398878F8304C08D819E8198878F8352
:10269000E981FA818F819885908F878BE981FA8112
:1026A0008789908D009739F489819A810E94E80387
:1026B0001A8219820BC0E981FA818789908D2B815A
:1026C0003C8165EA70E0A9010E94901389819A819A
:1026D00028960FB6F894DEBF0FBECDBFCF91DF9125
:1026E0000895DF93CF9300D0CDB7DEB79A83898367
:1026F000E981FA818789908D0E94E80389819A8116
:102700000E94E8030F900F90CF91DF910895FB0195
:10271000DC0102C001900D9241505040D8F708955D
:10272000DC0101C06D9341505040E0F70895FB017A
:10273000DC014150504048F001900D920020C9F753
:1027400001C01D9241505040E0F70895F894FFCF2A
:0E2750005461736B310049444C4500FFFF009B
:00000001FF
